:020000040800F2
:1000000000000220C15200088D0E00088F0E00086B
:10001000910E0008930E0008950E000800000000E5
:100020000000000000000000000000000152000875
:10003000970E000800000000315200089552000899
:100040001153000811530008115300081153000800
:1000500011530008115300081153000811530008F0
:1000600011530008115300081153000811530008E0
:1000700011530008115300081153000811530008D0
:100080001153000811530008CD2400081153000833
:1000900011530008115300081153000811530008B0
:1000A00011530008115300081153000811530008A0
:1000B0001153000811530008115300081153000890
:1000C0001153000811530008115300081153000880
:1000D000115300080D110008891100081153000880
:1000E000C5220008115300081153000811530008DD
:1000F0001153000811530008115300081153000850
:10010000115300081153000811530008115300083F
:10011000115300081153000811530008115300082F
:10012000115300081153000811530008115300081F
:10013000115300081153000811530008115300080F
:1001400011530008115300081153000811530008FF
:1001500011530008115300081153000811530008EF
:1001600011530008115300081153000811530008DF
:10017000115300081153000811530008000000003B
:0801800011530008115300089F
:1001900001F0FF01102A2BDB10F0070F08D010F838
:1001A000013B013A8B422DD010F0070F42B3F6D13C
:1001B000F0B441EA012141EA014122F007047FF055
:1001C00000070023F0E80256083C85EA010586EAAC
:1001D000010685FA47F5A3FA87F586FA47F6A5FAE8
:1001E00087F68EB9EED1F0BC01F0FF0102F00702F4
:1001F00032B110F8013B013A83EA010313B1F8D19F
:100200000020704701387047002D06BF354603387F
:10021000073815F0010F07D1013015F4807F02BFB8
:10022000013015F4C03F0130F0BC0138704700BF09
:10023000034613F8012B002AFBD1181A0138704726
:1002400081F0004102E000BF83F0004330B54FEA87
:1002500041044FEA430594EA050F08BF90EA020FF4
:100260001FBF54EA000C55EA020C7FEA645C7FEA87
:10027000655C00F0E2804FEA5454D4EB5555B8BFAA
:100280006D420CDD2C4480EA020281EA030382EA1B
:10029000000083EA010180EA020281EA0303362DAD
:1002A00088BF30BD11F0004F4FEA01314FF4801C80
:1002B0004CEA113102D0404261EB410113F0004F92
:1002C0004FEA03334CEA133302D0524263EB430349
:1002D00094EA050F00F0A780A4F10104D5F1200EE7
:1002E0000DDB02FA0EFC22FA05F2801841F1000142
:1002F00003FA0EF2801843FA05F359410EE0A5F116
:1003000020050EF1200E012A03FA0EFC28BF4CF046
:10031000020C43FA05F3C01851EBE37101F00045FC
:1003200007D54FF0000EDCF1000C7EEB00006EEB09
:100330000101B1F5801F1BD3B1F5001F0CD3490893
:100340005FEA30004FEA3C0C04F101044FEA4452EA
:1003500012F5800F80F09A80BCF1004F08BF5FEA71
:10036000500C50F1000041EB045141EA050130BD51
:100370005FEA4C0C404141EB0101013C28BFB1F563
:10038000801FE9D291F0000F04BF01460020B1FAAE
:1003900081F308BF2033A3F10B03B3F120020CDA81
:1003A0000C3208DD02F1140CC2F10C0201FA0CF05F
:1003B00021FA02F10CE002F11402D8BFC2F1200CC4
:1003C00001FA02F120FA0CFCDCBF41EA0C0190407A
:1003D000E41AA2BF01EB0451294330BD6FEA0404C3
:1003E0001F3C1CDA0C340EDC04F11404C4F12002AE
:1003F00020FA04F001FA02F340EA030021FA04F3C0
:1004000045EA030130BDC4F10C04C4F1200220FA16
:1004100002F001FA04F340EA0300294630BD21FA54
:1004200004F0294630BD94F0000F83F4801306BF1A
:1004300081F480110134013D4EE77FEA645C18BF0E
:100440007FEA655C29D094EA050F08BF90EA020FA5
:1004500005D054EA000C04BF1946104630BD91EA9D
:10046000030F1EBF0021002030BD5FEA545C05D1A0
:100470004000494128BF41F0004130BD14F58004DF
:100480003CBF01F5801130BD01F0004545F0FE4153
:1004900041F470014FF0000030BD7FEA645C1ABF88
:1004A000194610467FEA655C1CBF0B46024650EABF
:1004B000013406BF52EA033591EA030F41F40021EB
:1004C00030BD00BF90F0000F04BF0021704730B571
:1004D0004FF4806404F132044FF000054FF0000146
:1004E00050E700BF90F0000F04BF0021704730B507
:1004F0004FF4806404F1320410F0004548BF4042DC
:100500004FF000013EE700BF42004FEAE2014FEA30
:1005100031014FEA02701FBF12F07F4393F07F4F0B
:1005200081F06051704732F07F4208BF704793F00E
:100530007F4F04BF41F40021704730B54FF4607421
:1005400001F0004521F000411CE700BF50EA010224
:1005500008BF704730B54FF000050AE050EA0102CD
:1005600008BF704730B511F0004502D5404261EB3D
:1005700041014FF4806404F132045FEA915C3FF47E
:10058000D8AE4FF003025FEADC0C18BF03325FEA1B
:10059000DC0C18BF033202EBDC02C2F1200300FACC
:1005A00003FC20FA02F001FA03FE40EA0E0021FAF1
:1005B00002F11444BDE600BF70B54FF0FF0C4CF4DF
:1005C000E06C1CEA11541DBF1CEA135594EA0C0F91
:1005D00095EA0C0F00F0DEF82C4481EA030621EACC
:1005E0004C5123EA4C5350EA013518BF52EA033507
:1005F00041F4801143F4801338D0A0FB02CE4FF0B9
:100600000005E1FB02E506F00042E0FB03E54FF0E8
:100610000006E1FB03569CF0000F18BF4EF0010EE0
:10062000A4F1FF04B6F5007F64F5407404D25FEADC
:100630004E0E6D4146EB060642EAC62141EA55518F
:100640004FEAC52040EA5E504FEACE2EB4F1FD0CD1
:1006500088BFBCF5E06F1ED8BEF1004F08BF5FEA4F
:10066000500E50F1000041EB045170BD06F0004601
:1006700046EA010140EA020081EA0301B4EB5C04AE
:10068000C2BFD4EB0C0541EA045170BD41F48011A6
:100690004FF0000E013C00F3AB8014F1360FDEBFCB
:1006A000002001F0004170BDC4F10004203C35DAA7
:1006B0000C341BDC04F11404C4F1200500FA05F32A
:1006C00020FA04F001FA05F240EA020001F00042CB
:1006D00021F0004110EBD37021FA04F642EB060141
:1006E0005EEA430E08BF20EAD37070BDC4F10C046B
:1006F000C4F1200500FA04F320FA05F001FA04F22F
:1007000040EA020001F0004110EBD37041F100011A
:100710005EEA430E08BF20EAD37070BDC4F1200525
:1007200000FA05F24EEA020E20FA04F301FA05F28D
:1007300043EA020321FA04F001F0004121FA04F235
:1007400020EA020000EBD3705EEA430E08BF20EA05
:10075000D37070BD94F0000F0FD101F0004640003F
:1007600041EB010111F4801F08BF013CF7D041EAC1
:10077000060195F0000F18BF704703F000465200C5
:1007800043EB030313F4801F08BF013DF7D043EA96
:100790000603704794EA0C0F0CEA135518BF95EA4C
:1007A0000C0F0CD050EA410618BF52EA4306D1D1D3
:1007B00081EA030101F000414FF0000070BD50EAF2
:1007C000410606BF1046194652EA430619D094EA7C
:1007D0000C0F02D150EA013613D195EA0C0F05D166
:1007E00052EA03361CBF104619460AD181EA0301BA
:1007F00001F0004141F0FE4141F470014FF0000072
:1008000070BD41F0FE4141F4780170BD70B54FF00C
:10081000FF0C4CF4E06C1CEA11541DBF1CEA13558C
:1008200094EA0C0F95EA0C0F00F0A7F8A4EB05046E
:1008300081EA030E52EA03354FEA013100F0888065
:100840004FEA03334FF0805545EA131343EA12632E
:100850004FEA022245EA111545EA10654FEA0026E3
:100860000EF000419D4208BF964244F1FD0404F59C
:10087000407402D25B084FEA3202B61A65EB0305F8
:100880005B084FEA32024FF480104FF4002CB6EBB5
:10089000020E75EB030E22BFB61A754640EA0C0035
:1008A0005B084FEA3202B6EB020E75EB030E22BF75
:1008B000B61A754640EA5C005B084FEA3202B6EBB6
:1008C000020E75EB030E22BFB61A754640EA9C0075
:1008D0005B084FEA3202B6EB020E75EB030E22BF45
:1008E000B61A754640EADC0055EA060E18D04FEA03
:1008F000051545EA16754FEA06164FEAC30343EAA3
:1009000052734FEAC2025FEA1C1CC0D111F4801F6F
:100910000BD141EA00014FF000004FF0004CB6E768
:1009200011F4801F04BF01430020B4F1FD0C88BF07
:10093000BCF5E06F3FF6AFAEB5EB030C04BFB6EB12
:10094000020C5FEA500C50F1000041EB045170BD05
:100950000EF0004E4EEA113114EB5C04C2BFD4EB32
:100960000C0541EA045170BD41F480114FF0000EB6
:10097000013C90E645EA060E8DE60CEA135594EA32
:100980000C0F08BF95EA0C0F3FF43BAF94EA0C0F35
:100990000AD150EA01347FF434AF95EA0C0F7FF4AA
:1009A00025AF104619462CE795EA0C0F06D152EAFE
:1009B00003353FF4FDAE1046194622E750EA4106E2
:1009C00018BF52EA43067FF4C5AE50EA41047FF4F3
:1009D0000DAF52EA43057FF4EBAE12E74FF0FF3C58
:1009E00006E000BF4FF0010C02E000BF4FF0010C29
:1009F0004DF804CD4FEA410C7FEA6C5C4FEA430CA2
:100A000018BF7FEA6C5C1BD001B050EA410C0CBFF0
:100A100052EA430C91EA030F02BF90EA020F002052
:100A2000704710F1000F91EA030F58BF994208BFB9
:100A300090422CBFD8176FEAE37040F00100704776
:100A40004FEA410C7FEA6C5C02D150EA013C07D1CD
:100A50004FEA430C7FEA6C5CD6D152EA033CD3D018
:100A60005DF8040B704700BF8446104662468C4612
:100A70001946634600E000BF01B5FFF7B7FF002845
:100A800048BF10F1000F01BD4DF808EDFFF7F4FF6E
:100A90000CBF012000205DF808FB00BF4DF808EDF9
:100AA000FFF7EAFF34BF012000205DF808FB00BF1C
:100AB0004DF808EDFFF7E0FF94BF012000205DF83E
:100AC00008FB00BF4DF808EDFFF7CEFF94BF0120F3
:100AD00000205DF808FB00BF4DF808EDFFF7C4FFEC
:100AE00034BF012000205DF808FB00BF4FEA410C35
:100AF0007FEA6C5C02D150EA013C0AD14FEA430C18
:100B00007FEA6C5C02D152EA033C02D14FF0000054
:100B100070474FF0010070474FEA410212F5001292
:100B200015D211D56FF47873B3EB625212D94FEA34
:100B3000C12343F0004343EA505311F0004F23FA1E
:100B400002F018BF404270474FF00000704750EA73
:100B5000013005D111F0004008BF6FF00040704730
:100B60004FF00000704700BF4A0011D212F500128A
:100B700011D20DD56FF47873B3EB62520ED44FEAF5
:100B8000C12343F0004343EA505323FA02F0704775
:100B90004FF00000704750EA013002D14FF0FF30B3
:100BA00070474FF0000070474FEA4102B2F1E04356
:100BB00024BFB3F5001CDCF1FE5C0DD901F0004C44
:100BC0004FEAC0024CEA5070B2F1004F40EB830094
:100BD00008BF20F00100704711F0804F21D113F1C0
:100BE0003872BCBF01F00040704741F480114FEAF9
:100BF0005252C2F11802C2F1200C10FA0CF320FA82
:100C000002F018BF40F001004FEAC1234FEAD3239E
:100C100003FA0CFC40EA0C0023FA02F34FEA430308
:100C2000CCE77FEA625307D150EA01331EBF4FF091
:100C3000FE4040F44000704701F0004040F0FE40AC
:100C400040F40000704700BF7BB972B90029BEBFF5
:100C500000204FF0004106E008BF00281CBF6FF0E5
:100C600000414FF0FF3000F03FB8ADF1080C6DE9E6
:100C700004CE002909DB002B1ADB08F01BFFDDF88E
:100C800004E0DDE9022304B07047404261EB41011A
:100C9000002B1BDB08F00EFFDDF804E0DDE902238A
:100CA00004B0404261EB4101524263EB43037047A1
:100CB000524263EB430308F0FDFEDDF804E0DDE99A
:100CC000022304B0404261EB41017047524263EBA2
:100CD000430308F0EFFEDDF804E0DDE9022304B091
:100CE000524263EB43037047704700BF0348044B15
:100CF000834202D0034B03B1184770470002002023
:100D000000020020000000000548064B1B1AD90F06
:100D100001EBA301491002D0034B03B11847704700
:100D200000020020000200200000000010B5064C68
:100D3000237843B9FFF7DAFF044B13B10448AFF34C
:100D400000800123237010BD00020020000000007D
:100D5000009E000808B5054B1BB105490548AFF3D7
:100D60000080BDE80840FFF7CFBF00BF00000000D3
:100D700004020020009E000882B00023019300932B
:100D80002A4A136843F480331360284B1B6803F42A
:100D900000330093019B01330193009B1BB9019B1E
:100DA000B3F5A04FF1D1214B1B6813F4003F06D0DF
:100DB00001230093009B012B04D002B07047002355
:100DC0000093F7E7194B1A6C42F080521A641849E5
:100DD0000A6842F440420A609A689A609A6842F44B
:100DE00000429A609A6842F4A0529A60114A5A608E
:100DF0001A6842F080721A600C4B1B6813F0007F77
:100E0000FAD00D4B40F205721A60A3F580639A6820
:100E100022F003029A609A6842F002029A60034B41
:100E20009B6803F00C03082BF9D1C6E70038024099
:100E30000070004019544007003C024010B5104CAF
:100E4000D4F8883043F47003C4F888300D4B1A6826
:100E500042F001021A60002199601A6822F084723F
:100E600022F480321A60084A5A601A6822F48022FA
:100E70001A60D960FFF780FF4FF00063A36010BDD8
:100E800000ED00E000380240103000247047FEE71B
:100E9000FEE7FEE7FEE7704700B583B001F08AFA8F
:100EA00000283AD01F4806F0CFFC1F4B1868FFF708
:100EB0002BFBCDE900011D4B06220021084601F065
:100EC000ADF91B4B1868FFF71FFBCDE90001194B6B
:100ED00006221021002001F0A1F9174B1868FFF736
:100EE00013FBCDE90001154B06222021002001F063
:100EF00095F9134B1868FFF707FB04460D46114B95
:100F00001868FFF701FBCDE9000122462B460E4889
:100F100006F032FC01F01EF8C7E70C4806F094FC1E
:100F2000C3E700BF189E000830020020489E00085A
:100F30002C020020549E0008240200205C9E000821
:100F4000200200201C020020649E0008309E000841
:100F50004FF0E0231A6942F004021A61044A10605B
:100F60001A6942F001021A616FF070425A617047CB
:100F70003402002010B44FF0E02254690C4B1B687F
:100F800000FB03FC9369002104E0E01A02441144D1
:100F9000614509D21A464FF0E0239B699A42FAD084
:100FA000F3D9D21A1144F3E75DF8044B704700BF40
:100FB0003402002008B54FF47A7303FB00F0FFF70A
:100FC000D9FF08BD10464FF0000C944510DA00B56B
:100FD000084B1B8813F0400FFAD011F80CE0054BBA
:100FE000A3F804E00CF1010C8445F1DB5DF804FB8F
:100FF000704700BF00100140F0B587B006460121E0
:10100000084600F071FA0121102000F089FA1E4F05
:1010100007220921384600F0E8FA07220A2138465B
:1010200000F0E3FA4FF4C063049302238DF8143008
:101030008DF8153000248DF8164001258DF81750D5
:1010400004A9384600F07AFA0096ADF80440ADF8ED
:101050000640ADF80840ADF80C400C23ADF80A305E
:1010600004F1804404F588346946204600F004F910
:101070002946204600F066F92A4640F225512046CE
:1010800000F072F907B0F0BD0000024030B585B045
:1010900004460121084600F027FA01214FF40030F0
:1010A00000F030FA174D07220221284600F09DFA81
:1010B00007220321284600F098FA012302220C217E
:1010C000284601F035F900940023ADF80430ADF85E
:1010D0000630ADF80830ADF80C300C23ADF80A300E
:1010E000094C6946204600F0C7F80121204600F06F
:1010F00029F9012240F22551204600F035F905B0CA
:1011000030BD00BF000002400044004008B540F27E
:1011100025511A4800F043F900B908BD174800F0FE
:101120001FF9C0B2164A1388B2F90020002AF4DB76
:1011300013F4804F0CD00A2803D0114B00221A80E0
:10114000EBE76FEA43436FEA53430D4A1380E4E74A
:101150000D280DD0C3F30D020A49885401339BB208
:10116000074A1380C72BD8D9134600221A80D4E728
:1011700043F48043024A1380CFE700BF00100140D0
:101180003A0200203C02002008B540F225510C48EC
:1011900000F005F900B908BD094800F0E1F8094B75
:1011A0001880612805D040F22551054800F01CF94F
:1011B000F1E7054B01221A7000F0EEFDF3E700BFE6
:1011C00000440040380200200403002040F0BF60CB
:1011D00040F40030014BD860704700BF00ED00E0E4
:1011E000C378FBB1154BDA68D243C2F30222C2F1D5
:1011F0000401C9B20F23134142788A40D2B28178E8
:101200000B4013431B01DBB202780D490A4482F8FC
:101210000033037803F01F005B090122824041F88C
:1012200023207047037803F01F015B0901228A40E5
:101230002033034941F82320704700BF00ED00E050
:1012400000E100E0C06C80B2704742685FFA81FC48
:10125000012303FA0CF31A40036813EA112302D0A6
:101260001AB90020704700207047012070476FEACC
:10127000112101607047000030B585B004460D466D
:10128000038A9BB223F44053CA88134303828389A1
:101290009BB223F4B05323F00C03898828896A8910
:1012A00001430A431343A381A38A9BB223F44073EF
:1012B000AA891343A382684600F0BAF81F4B9C42E8
:1012C00005D003F580639C4201D0029B00E0039BA4
:1012D000A28912F4004F1FD103EB830303EB8303B6
:1012E0002A689200B3FBF2F3154AA2FB03125209DB
:1012F0001101642002FB1033A28912F4004F14D1B3
:101300001B0132330E4AA2FB0323C3F343130B43E7
:101310009BB2238105B030BD03EB830303EB830352
:101320002A685200B3FBF2F3DEE7DB003233044AF3
:10133000A2FB0323C3F342130B43E9E70010014070
:101340001F85EB5129B183899BB243F400538381FC
:10135000704783899BB223F400539BB2838170470B
:101360008088C0F308007047C1F3421C01F01F01E0
:1013700001238B40BCF1010F08D0BCF1020F07D054
:1013800014303AB102681343036070470C30F8E739
:101390001030F6E7026822EA030303607047C1F3E6
:1013A000421201F01F0C012303FA0CF3012A0FD0A3
:1013B000022A11D0828A92B21340090A012202FA4B
:1013C00001F1028892B20A4053B15AB90020704725
:1013D000828992B21340F0E7028A92B21340ECE79E
:1013E0000020704701207047090A01238B409BB2FF
:1013F000DB439BB20380704710B401F003029200FC
:101400004FF00F0C0CFA02FC8908084B023153F81C
:10141000214024EA0C0443F8214053F82140904035
:10142000044343F821405DF8044B70470038014005
:1014300010B4294B9B6803F00C03042B21D0082B1C
:1014400022D0002B45D1254B0360234CA368C3F366
:1014500003132349CA5CD2B20368D3404360A26835
:10146000C2F382228A5CD2B223FA02F28260A268BC
:10147000C2F342328A5CD2B2D340C3605DF8044BFF
:101480007047184B0360E0E7134B59685A6802F045
:101490003F0211F4800F12D0124BB3FBF2F30E4A4D
:1014A0005268C2F3881202FB03F30B4A5268C2F37C
:1014B000014201325200B3FBF2F30360C5E7074B70
:1014C000B3FBF2F3044A5268C2F3881202FB03F33F
:1014D000EBE7024B0360B8E7003802400024F40059
:1014E0001CA1000800127A0021B1054A136B0343C6
:1014F00013637047024A136B23EA000313637047B8
:101500000038024021B1054A136C0343136470474D
:10151000024A136C23EA0003136470470038024048
:1015200021B1054A536C034353647047024A536C1C
:1015300023EA0003536470470038024000220F2A58
:101540004DD810B514E0C36894B264004FF0030E98
:101550000EFA04FE23EA0E03C360C36891F807E0A5
:101560000EFA0CFC43EA0C03C36001320F2A35D893
:10157000012393400C68A343F7D104684FEA420C5F
:10158000032303FA0CF36FEA030E24EA0303036058
:1015900003680C7904FA0CF4234303600B79013BD4
:1015A000DBB2012BCFD883680EEA03038360836824
:1015B0004C7904FA0CF42343836043681FFA82FEDB
:1015C000012404FA0EF423EA0403436044688B798F
:1015D00003FA0EF39BB223434360B4E710BD704798
:1015E0000AB1018370474183704710B401F00703CB
:1015F0009B009A40C908083150F821404FF00F0C69
:101600000CFA03F324EA030340F8213050F82130A8
:10161000134340F821305DF8044B70478379002B69
:1016200036D010B4204B1A68016822EA01021A6011
:101630005A68016822EA01025A60027902F1804286
:1016400002F59E3211680468214311609A680168AE
:1016500022EA01029A60DA68016822EA0102DA608D
:101660004379102B0AD003F1804303F59E331A68A7
:1016700001680A431A605DF8044B70470A4B9A6888
:1016800001680A439A60DA6801680A43DA60F2E79F
:10169000037903F1804303F59E331A68016822EA57
:1016A00001021A60704700BF003C0140034B5B69B8
:1016B000034201D00120704700207047003C0140E8
:1016C000014B5861704700BF003C014003889BB24A
:1016D0001B4A904212D002F5806290420ED0B0F1C7
:1016E000804F0BD0A2F58032904207D002F5806285
:1016F000904203D002F58062904203D123F0700340
:101700004A8813430F4A904208D002F58062904203
:1017100004D023F440739BB20A89134303804B68BF
:10172000C3620B880385064B984203D003F58063A0
:10173000984201D18B7A038601238382704700BFD0
:10174000000001400010004029B103889BB243F023
:1017500080030380704703889BB223F080039BB211
:101760000380704729B103889BB243F001030380D3
:10177000704703889BB223F001039BB2038070473C
:1017800010B5038C9BB223F001039BB20384B0F825
:1017900020C01FFA8CFCB0F804E01FFA8EFE028B0A
:1017A00092B222F073020B881A432CF0020C8B8940
:1017B0004CEA030C4B8843EA0C030F4CA04203D0C5
:1017C00004F58064A0420FD123F00803CC892343A1
:1017D00023F004038C8823432EF4407E0C8A4EEAC7
:1017E000040E4C8A44EA0E0EA0F804E002838A68D4
:1017F0004263038410BD00BF0000014000B5038CAC
:101800009BB223F010039BB20384028C92B2B0F817
:1018100004E01FFA8EFEB0F818C01FFA8CFC2CF4FE
:10182000E64C0B881B029BB24CEA030C22F0200210
:101830008B891B019BB21A434B881B019BB213433C
:10184000134A904203D002F58062904217D123F0F0
:101850008003CA89120192B2134323F040038A889D
:10186000120192B213432EF4406E0A8A920092B291
:101870004EEA020E4A8A920092B242EA0E0EA0F896
:1018800004E0A0F818C08A68826303845DF804FB52
:101890000000014000B5038C9BB223F480739BB21F
:1018A0000384028C92B2B0F804E01FFA8EFEB0F806
:1018B0001CC01FFA8CFC2CF0730C0B884CEA030C38
:1018C00022F400728B891B029BB21A434B881B02C5
:1018D0009BB21343134A904203D002F580629042B8
:1018E00017D123F40063CA89120292B2134323F47E
:1018F00080638A88120292B213432EF4405E0A8AF1
:10190000120192B24EEA020E4A8A120192B242EAE1
:101910000E0EA0F804E0A0F81CC08A68C26303841D
:101920005DF804FB0000014010B5038C9BB223F46A
:1019300080539BB20384B0F820C01FFA8CFCB0F82F
:1019400004E01FFA8EFE828B92B222F4E6420B88EC
:101950001B029BB21A432CF4005C8B891B039BB2C5
:101960004CEA030C4B881B039BB243EA0C030C4C60
:10197000A04203D004F58064A04209D12EF4804E29
:10198000B1F810C04FEA8C1C1FFA8CFC4EEA0C0E0A
:10199000A0F804E082838A680264038410BD00BF5B
:1019A00000000140038B9BB223F008030B43038329
:1019B0007047038B9BB223F40063090289B20B4387
:1019C00003837047838B9BB223F008030B4383830D
:1019D0007047838B9BB223F40063090289B20B43E7
:1019E0008383704749B1B0F844306FEA43436FEAEC
:1019F00053439BB2A0F844307047B0F84430C3F36F
:101A00000E03A0F84430704708B52DED068BF0EEBC
:101A1000408AB0EE608AB5EEC00AF1EE10FA00F12D
:101A20009E80F0EE407AB5EEC08AF1EE10FA00F139
:101A30009980F0EE489A9FED60AAC7EE8A7A17EE79
:101A4000900AFEF761FD5AA3D3E90023FEF7B4FD27
:101A5000FFF7AAF809EE100AC9EE8A7A17EE900A83
:101A6000FEF752FD52A3D3E90023FEF7A5FDFFF7D1
:101A70009BF809EE900AB0EE490A03F089FDB0EE3A
:101A8000409A60EE00AAB0EE690A03F081FDF0EE24
:101A9000409A20EE000A3AEE800A03F079FC03F047
:101AA00099FC10EE100AFEF72FFD0022434BFEF7C3
:101AB00083FD3FA3D3E90023FEF7A8FEFFF774F8E8
:101AC00007EE900A3E4B1860C7EE8A7A17EE900A2E
:101AD000FEF71AFD36A3D3E90023FEF76DFDFFF7ED
:101AE00063F800EE100A03F053FDDFED367A20EEC6
:101AF00027AA354B83ED00AA89EE890A03F06AFC18
:101B000010EE100AFEF700FD00222C4BFEF754FDEC
:101B100027A3D3E90023FEF779FEFFF745F807EE88
:101B2000900A2A4B1860B5EEC08AF1EE10FA1CD468
:101B3000B5EEC08AF1EE10FA1CDDF5EEC08AF1EECA
:101B400010FA29D4F5EEC08AF1EE10FA12DD9FEDFD
:101B5000207A77EE677A1D4BC3ED007A0AE0F1EE4A
:101B6000407A60E7F1EE489A65E7F5EEC08AF1EE5B
:101B700010FA09DDF7EE007AB4EEE7AAF1EE10FAFA
:101B800012D4BDEC068B08BDD2D59FED0B7A77EE53
:101B9000677AC3ED007AEDE79FED077A77EE877AF3
:101BA0000A4BC3ED007AE5E7084B00221A60E8E72C
:101BB0004AD8124DFB2109400000344300806640A2
:101BC000240200200000AC42200200201C02002061
:101BD0000000B44370B588B001210220FFF7A0FCDB
:101BE00001210420FFF780FC384C002302224FF42F
:101BF0007071204600F09CFB032206212046FFF76F
:101C0000F4FC032207212046FFF7EFFC0322082102
:101C10002046FFF7EAFC032209212046FFF7E5FCF6
:101C200042F2CF0306930126ADF814600025ADF80B
:101C30001C50ADF81650A4F5823405A92046FFF7D4
:101C400045FD6023ADF80030ADF80260ADF80450FA
:101C50000295ADF80C50ADF80E50ADF81050ADF83F
:101C6000125069462046FFF78BFD69462046FFF774
:101C7000C5FD69462046FFF70DFE69462046FFF781
:101C800053FE08212046FFF78DFE08212046FFF76E
:101C900090FE08212046FFF795FE08212046FFF719
:101CA00098FE31462046FFF74FFD094805F0CCFD70
:101CB00031462046FFF796FE31462046FFF752FD9B
:101CC000044805F0C1FD08B070BD00BF0008024027
:101CD000789E0008A49E000804285AD8DFE800F087
:101CE000473625031400012906D02A4B0022C3F8E9
:101CF0009822C3F89C227047264B0022C3F89822F2
:101D00000122C3F89C227047012906D0214B0022F2
:101D1000C3F89022C3F8942270471E4B0122C3F8E7
:101D200090220022C3F894227047012906D0194B53
:101D30000022C3F88822C3F88C227047154B00227A
:101D4000C3F888220122C3F88C227047012906D0EB
:101D5000104B0022C3F88022C3F8842270470D4B39
:101D60000022C3F880220122C3F884227047094B65
:101D70000022C3F88022C3F88422C3F88822C3F863
:101D80008C22C3F89022C3F89422C3F89822C3F897
:101D90009C2270470080424208B5064B1B7823B155
:101DA00000210846FFF798FFFEE701210020FFF71A
:101DB00093FF08BD0403002008B5024640210248F5
:101DC000FFF70EFC08BD00BF0004024008B5024644
:101DD00080210248FFF704FC08BD00BF0004024058
:101DE00008B5024610210248FFF7FAFB08BD00BF04
:101DF0000004024008B5024620210248FFF7F0FB2C
:101E000008BD00BF0004024008B502460821024890
:101E1000FFF7E6FB08BD00BF0004024070B582B0CA
:101E2000002204E00133B3F57A7FFBD30132B2F52F
:101E30007A7F01D20023F6E701210220FFF754FB4D
:101E400001248DF8044000268DF806608DF80740C7
:101E500002238DF8053010230093174D694628465C
:101E6000FFF76CFB2023009369462846FFF766FBCB
:101E70004023009369462846FFF760FB80230093C8
:101E800069462846FFF75AFB08230093694628460F
:101E9000FFF754FB3046FFF78FFF2046FFF796FF12
:101EA0002046FFF79DFF2046FFF7A4FF2046FFF7DF
:101EB000ABFF02B070BD00BF0004024038B505465C
:101EC00000240FE0802323411D4214BF0120002085
:101ED000FFF77CFF0120FFF76FFF0020FFF76CFF8B
:101EE0000134E4B2072CEDD938BD10B5044600200A
:101EF000FFF78AFF0020FFF77DFF2046FFF7DEFF98
:101F00000120FFF781FF10BD70B506460D46002089
:101F1000FFF77AFF0120FFF76DFF002404E0305D3A
:101F2000FFF7CCFF0134E4B2AC42F8D30120FFF755
:101F30006BFF70BD10B50C4640F0B000FFF7D5FF49
:101F4000200940F01000FFF7D0FF04F00F00FFF76A
:101F5000CCFF10BD10B500240BE000212046FFF798
:101F6000E9FF8021044800EBC410FFF7CDFF0134E6
:101F7000E4B2072CF1D910BD0803002000200BE0CB
:101F8000084A02EBC0120021D1540133DBB213F036
:101F9000800FF5D00130C0B2072801D80023F6E742
:101FA000704700BF0803002008B5FFF737FFAE20D9
:101FB000FFF79BFFD520FFF798FF8020FFF795FFE5
:101FC000A820FFF792FF3F20FFF78FFFD320FFF7F6
:101FD0008CFF0020FFF789FF4020FFF786FFA1203C
:101FE000FFF783FFC820FFF780FFDA20FFF77DFFB0
:101FF0001220FFF77AFF8120FFF777FFCF20FFF74E
:1020000074FFD920FFF771FFF120FFF76EFFDB208F
:10201000FFF76BFF3020FFF768FFA420FFF765FF95
:10202000A620FFF762FF8D20FFF75FFF1420FFF768
:102030005CFFAF20FFF759FFFFF7A0FFFFF78AFF14
:1020400008BD00002DE9F04114461D460B4634E062
:1020500046F3CF061C4F07EBC61717F80280D3F1E3
:10206000000E03F007060EF0070E58BFCEF1000673
:102070004FF0010E0EFA06FE6FEA0E0E4FFA8EFEBC
:1020800008EA0E0807F802800CF1010C0FFA8CFC2C
:10209000624600EB040EF4450DDA1FFA8CFCBCF12D
:1020A0007F0FF1D8002BEFDB3F2BEDDC1E46002B22
:1020B000CEDADE1DCCE701331BB24A19934201DAB6
:1020C0008446E5E7BDE8F081080300202DE9F04FE4
:1020D00083B006460C4615469A460C9FFFF7B2FFA2
:1020E0004FF0000B4DE0E21D0DE0013A083116E023
:1020F0000133DBB2AB423ED29C46F0187F28F7D8C2
:102100002246002CEFDBD210D4F1000E04F00701C0
:102110000EF0070E58BFCEF10001002CE5DB424463
:10212000072A0FD8DFF87CE00EEBC21E1EF80090E5
:1021300008FB05CB17F80BB00BFA01FB49EA0B09BA
:102140000EF8009002F1010EBEF1070FD0D87246D2
:10215000DFF850E00EEBC21212F800E008FB05CCED
:1021600017F80CC0C1F108014CFA01F14EEA010E5A
:1021700002F800E0BCE7DDF804B00BF1010B5FFAF8
:102180008BFBBAF1010307D4D846BBEBE30F05DCA8
:102190000023CDF804B0ADE70733F5E703B0BDE8A1
:1021A000F08F00BF0803002000B583B0082B04D0D7
:1021B000062B0CD003B05DF804FB203A0A4B03EB6E
:1021C0000213009310230822FFF780FFF2E7203A62
:1021D00002EB4202054B03EB420300930823062265
:1021E000FFF774FFE6E700BF68A300082CA1000812
:1021F0002DE9F04180460F4616461D46002408E0B2
:1022000004FB05802B46394600B2FFF7CDFF0134B1
:10221000E4B2325D002AF3D1BDE8F08108B470B5B4
:10222000C3B004460D46164647AA52F8041B019255
:1022300002A805F06BFB334602AA29462046FFF7A9
:10224000D7FF43B0BDE8704001B0704730B583B0F0
:102250004FF44070FEF7BAFF28238DF804300124B4
:102260008DF8054000258DF806508DF8074001A82F
:10227000FEF7B6FF25238DF8043002238DF80530D4
:102280008DF806508DF8074001A8FEF7A9FF262318
:102290008DF804308DF805508DF806508DF8074004
:1022A00001A8FEF79DFF27238DF8043003238DF846
:1022B00005308DF806508DF8074001A8FEF790FF15
:1022C00003B030BD38B54FF40040FFF7EFF900B967
:1022D00038BD4FF40040FFF7F3F9074C074D084AAB
:1022E0002146284602F0A4FDD5ED000A94ED000A2F
:1022F000FFF78AFBECE700BF2C0200203002002031
:1023000028020020084A136B43F020031363074B95
:102310001A6842F480221A60DA68DA601A8B92B284
:1023200042F400721A8370470038024000140240E1
:1023300000B583B000918DF804208DF80730032399
:102340008DF8053000238DF806306946FFF7F6F862
:1023500003B05DF804FB000070B584B0012140209B
:10236000FFF7C2F801214FF48040FFF7D9F80F21A1
:102370000620FFF741F84FF40046029600258DF83D
:102380000C5003238DF80D3001248DF80F4002A965
:102390000748FFF7D3F800968DF8045008238DF80E
:1023A00005308DF806406846FFF738F904B070BD77
:1023B0000018024008B54FF4E130FEF71DFE4FF45F
:1023C0001650FEF763FE244805F03EFA5420FEF74F
:1023D000BFFD224805F038FAFFF738FF204805F026
:1023E00033FAFFF78FFF1F4805F02EFAFFF7F2FBD5
:1023F0001D4805F029FAFFF7D7FD1C4805F024FA1F
:1024000000230122FF211A48FFF792FF194805F027
:102410001BFA1420FEF7CEFD00F094FA78B91648A6
:1024200005F012FA02F0ACFC88B9144805F00CFA79
:10243000FFF792FF124805F007FA002008BD00F0F0
:1024400081FA01460F4805F097F90120F6E70E489A
:1024500005F0FAF90220F1E7C49E0008E09E0008AA
:10246000F49E0008089F00081C9F0008309F000889
:1024700000140240449F00087C9F0008DC9F000875
:10248000F89F0008589F0008949F00080000000073
:1024900008B507EE900AF8EE677A17EE900AFEF795
:1024A00033F808A3D3E90023FEF7B0F90022044B68
:1024B000FEF782F8FEF758FB80B208BDAFF300804C
:1024C0000080764000000000004EA84010B540F2A9
:1024D00005210D48FEF7B9FE00B910BD0A4C40F2C7
:1024E00005212046FEF7C3FE2046FEF7ABFE074B54
:1024F0001880074B4FF461625A63FFF7C9FF01462A
:10250000044805F039F9E8E70020014008070020F9
:10251000000001400CA0000810B582B0012102208B
:10252000FEF7E2FF4FF44073009301248DF804405E
:102530008DF8064003238DF805308DF80740694675
:102540000448FEF7FBFF044BC3F8A042C3F8A442C3
:1025500002B010BD000402400080404238B50D4B6F
:102560001A6822F440221A601A6842F480221A6023
:10257000094C0123C4F8A432C4F8A0320420FEF7A9
:10258000F9FC0025C4F8A4520420FEF7F3FCC4F8BB
:10259000A05238BD000402400080404210B50D4BEF
:1025A0001A6822F440221A601A6842F480221A60E3
:1025B000094C0023C4F8A032C4F8A4320420FEF76A
:1025C000D9FC0123C4F8A032C4F8A4320420FEF7D9
:1025D000D1FC10BD000402400080404238B5124BCF
:1025E0001A6822F440221A601A681A600F4D0124FA
:1025F000C5F8A4422046FEF7BDFCC5F8A04220461F
:10260000FEF7B8FC0023094AD2F824223AB101337C
:10261000DBB2FA2BF7D9FFF7C1FF012003E000205E
:10262000024BC3F8A00238BD0004024000804042C3
:1026300038B50D4C0025C4F8A0520C4B1A6822F492
:1026400040221A601A6842F480221A60C4F8A45228
:102650000220FEF78FFC0123C4F8A0320220FEF70F
:1026600089FCC4F8A05238BD0080404200040240FA
:1026700070B50D4C0025C4F8A0520C4B1A6822F41A
:1026800040221A601A6842F480221A600126C4F8B7
:10269000A4620220FEF76EFCC4F8A0620220FEF7DE
:1026A00069FCC4F8A05270BD0080404200040240A2
:1026B00070B50546134B1A6822F440221A601A6856
:1026C00042F480221A6000240F4BC3F8A04216E0A7
:1026D000EB090D4EC6F8A4326D00EDB20220FEF7F4
:1026E00049FC0123C6F8A0320220FEF743FC002378
:1026F000C6F8A0320220FEF73DFC0134E4B2072CFC
:10270000E6D970BD0004024000804042F8B507469B
:10271000154B1A6822F440221A601A681A600024C5
:10272000254604E00120FEF725FC0135EDB2072D1A
:1027300012D80E4E0023C6F8A0320220FEF71AFC73
:102740000123C6F8A0329C40E4B2D6F82432002B14
:10275000E8D00134E4B2E5E71FB9FFF789FF20466E
:10276000F8BDFFF765FFFAE7000402400080404231
:102770002DE9F04104460F4615461E46FFF7EEFED2
:10278000600000F0FE00FFF793FFFFF727FF88B916
:1027900080463846FFF78CFFFFF720FF4446AC42E7
:1027A00014D2305DFFF784FFFFF718FF48B90134FA
:1027B000E4B2F4E7FFF7F2FE4FF001084046BDE84F
:1027C000F081FFF7EBFE4FF00108F7E7FFF7E6FEB9
:1027D000F4E7F8B506460F4614461D46FFF7BEFE61
:1027E000700000F0FE00FFF763FFFFF7F7FE78B917
:1027F0003846FFF75DFFFFF7F1FEFFF7AFFE700011
:1028000040F00100C0B2FFF753FFFFF7E7FE0AE018
:10281000FFF7C4FE012011E00020FFF777FF2870CA
:10282000013CE4B2013534B1012CF5D00120FFF7B1
:102830006DFF2870F4E7FFF7B1FE2046F8BD38B50C
:1028400005460C46FFF78AFED020FFF731FFFFF761
:10285000C5FE78B92846FFF72BFFFFF7BFFE2046DD
:10286000FFF726FFFFF7BAFE044638B9FFF796FEDA
:10287000204638BDFFF792FE0124F9E7FFF78EFEF0
:102880000124F5E708B5C10001F0F8011B20FFF7AE
:10289000D6FF08BD08B5C10001F0F8011C20FFF704
:1028A000CEFF08BD08B5BB2809D861280CD8292857
:1028B0000CD813280CD809280CD9052100E00121D7
:1028C0001A20FFF7BCFF08BD0221F9E70321F7E753
:1028D0000421F5E70621F3E710B5B0F57A7F04D8B7
:1028E0000446032803D8042401E04FF47A744FF41B
:1028F0007A7191FBF4F1C9B20139C9B21920FFF71D
:102900009EFF6008FFF7CEFF10BD10B50446FFF72D
:1029100025FED020FFF7CCFEFFF760FE2046FFF734
:10292000C7FEFFF75BFEFFF719FED120FFF7C0FEE1
:10293000FFF754FE0020FFF7E9FE0446FFF72EFEE6
:10294000204610BD08B5FFF7E7FD80216B20FFF79B
:1029500076FF6420FEF72EFB00216B20FFF76FFF50
:102960000320FFF78FFF0020FFF794FF3220FFF7CF
:10297000B3FF00213820FFF762FF00216A20FFF734
:102980005EFF00212320FFF75AFF80213720FFF749
:1029900056FF7520FFF7B9FF68280CD101216B2085
:1029A000FFF74DFF00216C20FFF749FF3220FFF7B2
:1029B00093FF002008BD0146024804F0DDFE01201F
:1029C000F8E700BF1CA0000838B50446C578437876
:1029D00013F0010F09D005F03F00C00805F0070112
:1029E0000131074B1B6803B19847637813F0080F58
:1029F00004D0034B5B680BB1A8099847002038BD91
:102A00000C07002008B5C8234FF48062024940F645
:102A1000F63002F015F808BD58A9000810B586B0C8
:102A200004464C4B1B68ADF80C301B0C8DF80E3077
:102A3000494B1B68ADF808301B0C8DF80A30474B2A
:102A40001B68ADF804301B0C8DF80630444B1B6836
:102A5000ADF800301B0C8DF8023000F0030101F1DD
:102A600018030DEB030111F80C3C8DF81430C0F382
:102A7000C10202F118030DEB030212F80C3C8DF8B1
:102A80001530C0F3811318336B4413F80C0C8DF818
:102A9000160011F8101C8DF8101012F8102C8DF87B
:102AA000112013F8103C8DF8123005AA032140F2D2
:102AB000264001F051FF002840D104AA032140F232
:102AC0002A4001F049FF00283BD1019BADF81430AA
:102AD0001B0C8DF81630009BADF810301B0C8DF8D8
:102AE000123014F0040F05D037238DF8143027234B
:102AF0008DF8103014F0200F05D057238DF81530C5
:102B000047238DF8113014F4807F05D077238DF89A
:102B1000163067238DF8123005AA03214FF4886020
:102B200001F01AFF80B904AA032140F2314001F0FC
:102B300013FF60B90B4B1C8106B010BD4FF0FF3086
:102B4000FAE74FF0FF30F7E74FF0FF30F4E74FF0D0
:102B5000FF30F1E730A0000834A0000838A00008DA
:102B60003CA000080C07002070B584B0404B1B89C6
:102B700003F0030250F82220019213F0040F01D059
:102B800052420192C3F3C10250F82220029213F084
:102B9000200F01D052420292C3F3811250F822203A
:102BA000039213F4807F01D052420392019BD81705
:102BB000304AA3FB023102FB00119B0F43EA810361
:102BC00001930299CC17A1FB021002FB04008D0FA8
:102BD00045EA80050295039CE017A4FB024102FB35
:102BE0000012A40F44EA820403941A0E8DF8002008
:102BF000C3F307428DF80120C3F307228DF80220AA
:102C00008DF803306A4604214FF4747001F0A4FE7D
:102C100040BB2B0E8DF80030C5F307438DF8013013
:102C2000C5F307238DF802308DF803506A4604215E
:102C30004FF4757001F090FEB8B9230E8DF8003096
:102C4000C4F307438DF80130C4F307268DF8026002
:102C50008DF803406A4604214FF4767001F07CFE43
:102C600004B070BD4FF0FF30FAE74FF0FF30F7E7E8
:102C70000C07002009E3CA0210B588B004460DF124
:102C8000060001F0BDFABDF806C04FEACC3C364B59
:102C90001B8903F0030254F82220059213F0040F5D
:102CA00001D052420592C3F3C10254F82220069289
:102CB00013F0200F01D052420692C3F3811254F850
:102CC0002220079213F4807F01D052420792059987
:102CD000CA17A1FB0C130CFB0233890F41EA8301D5
:102CE0000591069AD017A2FB0C230CFB0033920F20
:102CF00042EA83020692079BDC17A3FB0C300CFB15
:102D000004009B0F43EA80030793080E8DF8080028
:102D1000C1F307408DF80900C1F307208DF80A00C0
:102D20008DF80B10110E8DF80C10C2F307418DF8C1
:102D30000D10C2F307218DF80E108DF80F201A0E1A
:102D40008DF81020C3F307428DF81120C3F307223A
:102D50008DF812208DF8133002AA0C214FF4257043
:102D600001F0FAFD08B010BD0C07002010B586B0C8
:102D70000446164B93E8070006AB03E90700C82C8E
:102D80001AD8C82393FBF4F3013B1A0E8DF80420E4
:102D90008DF8053001AA022140F2162001F0DCFD79
:102DA00068B903AA0C2140F6C12001F0D5FD48B94D
:102DB000074B9C8106B010BD4FF0FF30FAE74FF093
:102DC000FF30F7E74FF0FF30F4E700BF40A0000806
:102DD0000C07002010F0070F00F0BE8010B52DED9D
:102DE000028B82B00446B1F5C86F00F2B88007EEDE
:102DF000901AF8EE677A9FED637A87EE878A0DF175
:102E0000030001F0F1F89DF80330023B0E2B00F2B5
:102E1000A980DFE803F008A72FA7A7A742A7A7A7C5
:102E2000A7A7A7A75500DFED587A68EE277AFCEE32
:102E3000E77A17EE903A9BB2DFED547A68EE277A84
:102E4000FCEEE77A17EE902A92B2190A8DF8041078
:102E50008DF80530130A8DF806308DF8072014F030
:102E6000010F40D114F0020F51D114F0040F61D1C1
:102E7000002079E0DFED467A68EE277AFCEEE77A0B
:102E800017EE903A9BB2DFED437A68EE277AFCEEBC
:102E9000E77A17EE902A92B2D7E7DFED3F7A68EE35
:102EA000277AFCEEE77A17EE903A9BB2DFED3B7A99
:102EB00068EE277AFCEEE77A17EE902A92B2C4E722
:102EC000DFED377A68EE277AFCEEE77A17EE903A74
:102ED0009BB2DFED347A28EE278ABCEEC88A18EE62
:102EE000102A92B2B1E701AA02214FF4EA7001F070
:102EF00033FD00283CD10DF1060202214FF49270FF
:102F000001F02AFD0028ADD04FF0FF302CE001AADF
:102F100002214FF4EC7001F01FFD60BB0DF10602C1
:102F200002214FF4947001F017FD00289DD04FF05E
:102F3000FF3019E001AA02214FF4EE7001F00CFD00
:102F4000E0B90DF1060202214FF4967001F004FD84
:102F500050B14FF0FF3007E04FF0FF3070474FF0B7
:102F6000FF3001E04FF0FF3002B0BDEC028B10BD2E
:102F70004FF0FF30F8E74FF0FF30F5E74FF0FF304C
:102F8000F2E700BF000048430000804600004046D2
:102F9000000000460000C04500008045000040459C
:102FA000000000450000C04400B583B000238DF848
:102FB000073010F0010F02D030238DF8073010F0E9
:102FC000020F05D09DF8073043F00C038DF8073051
:102FD00010F0040F05D09DF8073043F003038DF87F
:102FE00007300DF1070201214FF4A47001F0B4FC89
:102FF00003B05DF804FB00B583B020B1034604289C
:1030000002D9042300E00123013B8DF807300DF1C4
:103010000702012140F24F1001F09EFC03B05DF861
:1030200004FB000000B583B0094BA3FB0030830A0A
:103030008DF80430C0F387008DF8050001AA022145
:103040004FF4EF7001F088FC03B05DF804FB00BFA3
:10305000CDCCCCCC00B583B0094BA3FB0030830AA8
:103060008DF80430C0F387008DF8050001AA022115
:103070004FF4ED7001F070FC03B05DF804FB00BF8D
:10308000CDCCCCCC00B583B00E4B83FB0023C01756
:10309000C0EBA31000FB01F10B0E8DF80430C1F35F
:1030A00007438DF80530C1F307238DF806308DF8FE
:1030B000071001AA04214FF4AE7001F04DFC03B0DB
:1030C0005DF804FBD34D621000B583B0084BA3FB41
:1030D00000308308800A8DF804008DF8053001AABD
:1030E00002214FF4AD7001F037FC03B05DF804FB32
:1030F000CDCCCCCC00B583B0084BA3FB003083080B
:10310000800A8DF804008DF8053001AA02214FF4E1
:10311000AC7001F021FC03B05DF804FBCDCCCCCC4D
:1031200000B585B068B10D4A01AB07CA03C31A7078
:1031300001AA09214FF4976001F00EFC05B05DF87B
:1031400004FB074A01AB07CA03C31A7001AA09218D
:103150004FF4976001F000FCF0E700BF50A00008BA
:103160005CA0000800B583B0B0B1C0238DF8043076
:10317000C2238DF80530C4238DF80630C6238DF8A0
:10318000073001AA042140F6982001F0E5FB00F089
:10319000C5FD03B05DF804FB4FF08B330193F0E7FE
:1031A00000B583B0B0B120238DF8043028238DF80A
:1031B000053030238DF8063038238DF8073001AA0A
:1031C000042140F69E2001F0C7FB00F0A7FD03B0EC
:1031D0005DF804FB4FF0A3330193F0E72DE9F041D4
:1031E00084B0044602238DF80430CA238DF80530DC
:1031F000E3238DF8063009238DF8073001AA042156
:10320000682001F0A9FBA3238DF8043014F04008D6
:1032100000F0B080C0238DF80530C8238DF806304B
:10322000C2238DF8073014F4C07500F0AB80C423BE
:103230008DF80830CC238DF80930C6238DF80A307C
:10324000A3238DF80B308DF80C308DF80D3001AACA
:103250000A2140F6A72001F07FFB14F0030700F0DD
:10326000998020238DF8043001AA012140F6B62070
:1032700001F072FB14F0200F00F090800120FFF7A6
:103280004FFFADB114F4807F00F08C80B2238DF835
:1032900004308B238DF80530B6238DF806309B2340
:1032A0008DF8073001AA042140F6A22001F054FB5A
:1032B00014F0010F00F08380F8238DF8043001AA88
:1032C00001214FF40B6001F047FBFA210720FFF7C3
:1032D00081FD0720FFF768FE0120FFF78CFE6420C8
:1032E000FFF7A0FE4FF4FA70FFF7B4FEC8213F4885
:1032F000FFF7C8FE2820FFF7E7FE0A20FFF7FAFED7
:1033000014F0020F65D0D9238DF8043001AA0121F1
:1033100040F23D7001F020FB14F0040F5DD001205D
:10332000FFF720FF14F0100F5BD00120FFF738FFEC
:103330002F4E44F00803738100F0F0FC0023B373B8
:10334000B8F1000F01D00622B2731DB1284A937B59
:103350000633937314F0140F03D0254A937B103374
:1033600093731FB1224A937B04339373002004B0FC
:10337000BDE8F081A3238DF805308DF806308DF877
:10338000073050E7A3238DF808308DF809308DF809
:103390000A3055E7D8238DF8043065E70020FFF7A1
:1033A000BFFE6EE7B0238DF8043080238DF8053022
:1033B000B4238DF8063090238DF8073072E7D823B8
:1033C0008DF8043001AA01214FF40B6001F0C4FA1A
:1033D00096E7D8238DF8043098E70020FFF7C2FE67
:1033E000A0E70020FFF7DCFEA2E700BF09E3CA0266
:1033F0000C0700202DE9F0478CB006460F46924698
:103400009846149D00232B80159A04A9734B987B32
:1034100000F056FF002840F0DE8081466F4B5B894C
:1034200013F0140F65D09DF810209DF811000004D2
:1034300040EA02609DF8122040EA02209DF8132025
:103440001043CAF800009DF814109DF815201204CE
:1034500042EA01629DF8161042EA01229DF8171017
:103460000A43CAF804209DF818409DF81910090471
:1034700041EA04619DF81A4041EA04219DF81B408D
:103480002143CAF808109DF81CC09DF81D40240473
:1034900044EA0C649DF81EC044EA0C249DF81FC049
:1034A00044EA0C04CAF80C40001400904FEA224C85
:1034B000CDF804C009140291221403920CFB0CFCF9
:1034C00000FB00C001FB010102FB021202F171428C
:1034D000B2F1007F06D8B5F9002042F480722A804C
:1034E000102207E000F01AFC00232B804FF0FF3978
:1034F00068E0002213F0400F2DD002F13001694442
:1035000011F8200C02F13101694411F8201C41EA44
:103510000021398002F13201694411F8200C02F1D6
:103520003301694411F8201C41EA0021798002F13D
:103530003401694411F8200C02F13501694411F895
:10354000201C41EA0021B9800632D2B2B5F9001040
:1035500041F00801298013F4C07F2DD002F1300121
:10356000694411F8200C02F13101694411F8201C62
:1035700041EA0021318002F13201694411F8200C46
:1035800002F13301694411F8201C41EA00217180E5
:1035900002F13401694411F8200C02F1350169444B
:1035A00011F8201C41EA0021B1800632D2B2B5F9EF
:1035B000001041F07001298013F0030F06D140463E
:1035C00001F0DCFB48460CB0BDE8F08704AB98186E
:1035D000FFF7FAF9F3E74FF0FF39F3E70C070020A4
:1035E00010B582B004462E4B586801AB04220D2161
:1035F0000078FFF7EEF800284FD101469DF804202F
:10360000D21002F01C029DF80730C3F301100243F0
:103610008DF800209DF80520D21002F01C02C3F3A3
:10362000810002438DF801209DF80620D21002F09F
:103630001C0203F0030313438DF802301BE004EB7C
:10364000810C184BCCF8003007E0DCED007A9FEDE0
:10365000167A67EE877ACCED007A0EF108030DEB4F
:10366000030212F8083C013BDBB202F8083C002BD5
:10367000EBD10131C9B202290CD88E4601F1080301
:103680006B4413F8083C002BD9D104EB81030022D2
:103690001A60EEE7002002B010BD0720FBE700BF74
:1036A0000C0000207B14AE3E1D5A843F30B585B01F
:1036B00005460C4601A8FFF793FF0020024611E0E3
:1036C0009FED217AF4EEC77AF1EE10FA06D49FED61
:1036D0001F7AF4EEC77AF1EE10FA02DD012393406F
:1036E00018430132022A2CDC55F8223054F82210FB
:1036F0005B1A002BB8BF5B4207EE903AF8EEE77A10
:103700009FED137A67EE877A04AB03EB820353EDE8
:10371000036AF5EE406AF1EE10FAD1D087EEA67A90
:10372000F7EE007A77EE677AF0EEE77A9FED097AA6
:10373000F4EEC77AF1EE10FAD3DD0123934018437B
:10374000CFE705B030BD00BF9A99993E3333733F40
:1037500000008037295C0F3E30B583B004460D462B
:10376000394B586801AB03220D210078FFF731F87F
:10377000002865D19DF8043003F01F038DF8043054
:103780009DF8053003F01F038DF805309DF80630D5
:1037900003F01F038DF80630024629E0DFED2B6AA7
:1037A00027EE267A02F108030DEB030111F8043C21
:1037B000013BDBB201F8043C002BEFD1C7EE876A76
:1037C000F7EE007A76EEE77AF0EEE77A9FED207A70
:1037D000F4EEC77AF1EE10FA09DD012393401843A5
:1037E00005E0B3EE097ADDE7012393401843013287
:1037F000022A26DC54F8223055F822105B1A002BDE
:10380000B8BF5B4207EE903AF8EEE77A9FED117A87
:1038100067EE877A02F108036B4413F8043C002B2F
:10382000DFD1B2EE047AF4EEC77AF1EE10FADBD40F
:103830009FED097AF4EEC77AF1EE10FAD7DDD3E7FF
:10384000072003B030BD00BF0C00002054E3853FCB
:10385000295C0F3E000080370000D24200B583B0E3
:10386000234B93F82430CBB1A0B102238DF807305D
:103870001F4B586819680DF107030122C97B0078B6
:10388000FEF776FF40BB9DF80720194B5A7403B032
:103890005DF804FB00238DF80730E9E7144B9B7AB1
:1038A000EBB130B1124B5B7CE3B901238DF80730EB
:1038B00002E000238DF807300D4B586819680DF1B0
:1038C00007030122C97B0078FEF752FF60B99DF81B
:1038D0000720074B5A74DAE74FF0FF30D7E74FF075
:1038E000FF30D4E70020D2E74FF0FF30CFE700BF32
:1038F0000C000020F0B589B005460C4616460123A1
:103900008DF8143000238DF81530854B58681968F0
:1039100005AB0222897C0078FEF72AFF002840F0E0
:10392000CE81C820FDF746FB00238DF814307C4B78
:103930005868196805AB0122C97B0078FEF718FFAB
:10394000002840F0BF81764B5868196805AB01220A
:1039500049790078FEF70CFF002840F0B681704BE3
:103960005868196805AB0122897C0078FEF700FFD2
:10397000002840F0AD816A4B5868196805AB0122F8
:10398000C97D0078FEF7F4FE002840F0A481644B66
:103990005868196805AB012209790078FEF7E8FE3E
:1039A000002840F09B810C238DF814305C4B586844
:1039B000196805AB012209790078FEF7D9FE0028C5
:1039C00040F08F810F20FDF7F5FA554B9A6A527A35
:1039D0008DF814205868196805AB012289780078A1
:1039E000FEF7C6FE002840F07F814D4B9A6A127A9E
:1039F0008DF814205868196805AB012249780078C1
:103A0000FEF7B6FE002840F07281002E79D0444BBC
:103A10009B6A9B7A63F01F038DF81430404B586803
:103A2000196805AB012289790078FEF7A1FE00280C
:103A300040F06081002E6AD0394B9B6ADB7A63F0DC
:103A40001F038DF81430364B5868196805AB0122F6
:103A5000C9790078FEF78CFE002840F04E81002ED8
:103A600059D140238DF814302D4B5868196805AB97
:103A7000012209790078FEF77BFE002840F04081A2
:103A800078238DF81430264B5868196805AB01224D
:103A900049790078FEF76CFE002840F0348132202E
:103AA000FDF788FA00238DF814301D4B586819680B
:103AB00005AB012249790078FEF75AFE002840F054
:103AC0002581174B5868196805AB0222897A00785E
:103AD000FEF77FFE0646002840F01B819DF814305B
:103AE0009DF8157047EA03270E4BA3FB0737C7F372
:103AF000C7070023AB606B602B60A360636023602B
:103B00005CE0074B9B6A9B7A8DF8143086E718239C
:103B10008DF8143097E7C820FDF74CFAA1E700BFF5
:103B20000C000020ABAAAAAA9DF814309DF815102D
:103B300041EA032109B2ADF804109DF816309DF852
:103B4000172042EA032212B2ADF806209DF81800B1
:103B50009DF8193043EA00231BB2ADF80830206805
:103B600008442060616811446160A2681A44A26040
:103B70009DF81A309DF81B1041EA032109B2ADF8F7
:103B80000C109DF81C309DF81D2042EA032212B251
:103B9000ADF80E209DF81E009DF81F3043EA00236B
:103BA0001BB2ADF8103028680844286069681144D9
:103BB0006960AA681A44AA600136F6B2BE420ED203
:103BC000554B5868196805AB0C22C97A0078FEF786
:103BD00000FE0028A8D04FF0FF3009B0F0BD2968E2
:103BE0008322002308040914FDF72EF800263A4624
:103BF0003346FDF729F8286069688322002308040A
:103C00000914FDF721F83A463346FDF71DF86860C0
:103C1000A9688322002308040914FDF715F83A4621
:103C20003346FDF711F8A860206803140004194614
:103C3000B3422DDBC00A3A46334640EA4150C9122E
:103C4000FDF702F820606068031400041946002B99
:103C500024DBC00A3A46334640EA4150C912FCF719
:103C6000F3FF6060A068031400041946002B1BDBFF
:103C7000C00A3A46334640EA4150C912FCF7E4FF15
:103C8000A060002816DDA0F58030A0600020A4E729
:103C900040F2FF72801843F10001CBE740F2FF725F
:103CA000801843F10001D4E740F2FF72801843F11D
:103CB0000001DDE700F58030A06000208DE74FF0C7
:103CC000FF308AE74FF0FF3087E74FF0FF3084E79F
:103CD0004FF0FF3081E74FF0FF307EE74FF0FF30CD
:103CE0007BE74FF0FF3078E74FF0FF3075E74FF09C
:103CF000FF3072E74FF0FF306FE74FF0FF306CE7B7
:103D00004FF0FF3069E74FF0FF3066E74FF0FF30CC
:103D100063E74FF0FF3060E70C0000207C4B9B7A9C
:103D2000002B00F0D48000B583B000238DF807305D
:103D3000774B586819680DF107030122C97B007899
:103D4000FEF716FD002840F0C580714B58681968D1
:103D50000DF10703012249790078FEF709FD0028DB
:103D600040F0BB806A4B586819680DF107030122C7
:103D700009790078FEF7FCFC002840F0B180644B24
:103D800093F82430002B52D00C238DF80730604B71
:103D9000586819680DF10703012209790078FEF7C8
:103DA000E7FC002840F09F803220FDF703F9C02394
:103DB0008DF80730564B9B7A13F0010F02D0E023A9
:103DC0008DF80730524B586819680DF1070301222E
:103DD00009790078FEF7CCFC002840F087804C4B36
:103DE0005B7C03B302238DF80730494B5868196890
:103DF0000DF107030122C97B0078FEF7B9FC00280A
:103E000077D100238DF80730414B586819680DF1C0
:103E10000703012249790078FEF7AAFC00286BD13C
:103E200003B05DF804FB00238DF80730DDE70423C1
:103E30008DF80730364B586819680DF107030122D9
:103E400009790078FEF794FC002858D1304B9B7C10
:103E500023B92F4B9B7A13F0010F30D140238DF8FB
:103E600007302B4B586819680DF1070301220979B7
:103E70000078FEF77DFC002844D13220FDF79AF847
:103E8000234B5B7CFBB101238DF80730204B586836
:103E900019680DF107030122C97B0078FEF768FC61
:103EA00098BB1B4B586853F8101B012249790078C6
:103EB000FEF75EFC0028B3D04FF0FF30B0E7602380
:103EC0008DF80730CDE700238DF80730DEE74FF09F
:103ED000FF3070474FF0FF30A2E74FF0FF309FE711
:103EE0004FF0FF309CE74FF0FF3099E74FF0FF3085
:103EF00096E74FF0FF3093E74FF0FF3090E74FF039
:103F0000FF308DE74FF0FF308AE74FF0FF3087E753
:103F10000C0000200D4B1B7A032B13D8DFE803F0B5
:103F200002060A0EFA230380002070474FF4FA734A
:103F30000380F9E74FF47A730380F5E74FF4FA63EF
:103F40000380F1E700230380EEE700BF0C000020B0
:103F5000244B9B7A002B3CD000B583B0B0F57A7F20
:103F600033D00BD8FA2813D0B0F5FA7F03D1082349
:103F70008DF807300FE04FF0FF3023E0B0F5FA6F17
:103F800003D118238DF8073005E04FF0FF3019E01A
:103F900000238DF80730134B1B7A9DF80720B3EBF5
:103FA000D20F19D00F4B586819680DF10703012281
:103FB00089790078FEF7DCFB80B99DF80730DB08D3
:103FC000084A137203B05DF804FB10238DF8073024
:103FD000E1E74FF0FF3070470020F3E74FF0FF308C
:103FE000F0E700BF0C0000200F4B5B7A032B16D8C4
:103FF000DFE803F0020C0F12022303700A4BDB7C94
:1040000083B103785B0003700020704704230370C2
:10401000F4E708230370F1E710230370EEE74FF095
:10402000FF307047002070470C000020234B9B7A24
:10403000002B35D000B583B002380E2833D8DFE826
:1040400000F0083223323232273232323232323208
:104050002B0000238DF80730184B5B7A9DF8072062
:10406000B3EBD20F24D0154B586819680DF1070334
:104070000122C9790078FEF77BFBD8B99DF807309B
:10408000DB080E4A537210E008238DF80730E3E78F
:1040900010238DF80730DFE718238DF80730DBE7B2
:1040A0004FF0FF3070474FF0FF3003B05DF804FB76
:1040B0000020FAE74FF0FF30F7E700BF0C000020C8
:1040C0000F4BDB7A013B052B17D8DFE803F0030722
:1040D0000A0D1013BC230380002070476223038065
:1040E000FAE72A230380F7E714230380F4E70A237F
:1040F0000380F1E705230380EEE700230380EBE76D
:104100000C000020234B9B7A002B3AD000B583B0E3
:10411000BB281AD901238DF807301E4BDA7A9DF897
:1041200007309A4230D01B4B586819680DF10703CD
:10413000012289780078FEF71BFB38BB9DF8072029
:10414000144BDA7203B05DF804FB612803D9022333
:104150008DF80730E1E7292803D903238DF80730CC
:10416000DBE7132803D904238DF80730D5E70928A6
:1041700003D905238DF80730CFE706238DF80730E4
:10418000CBE74FF0FF3070470020DBE74FF0FF3008
:10419000D8E700BF0C000020054B93F8243023B96A
:1041A000034BDB890380002070474FF0FF307047DE
:1041B0000C0000200D4B1B7A032B13D8DFE803F013
:1041C00002060A0E0A4B036000207047094B036089
:1041D00000207047084B036000207047074B0360C6
:1041E000002070474FF0FF30704700BF0C000020E8
:1041F00000000343000083423333034233338341DF
:10420000114B5B7A032B1AD8DFE803F0020D11156E
:104210004FF4804303800C4BDB7C9BB103885B082D
:1042200003800020704741F69C730380F3E74FF44E
:1042300080530380EFE74FF400630380EBE74FF018
:10424000FF307047002070470C000020024B1B7CA1
:1042500003700020704700BF0C00002070B5174BA2
:1042600093F824302BBB00F0FE04144B9B7A13B35D
:10427000124A167C23401374A3420BD04FF0FF3533
:1042800014B90E4B1B7D3BB10120FFF7E7FA3CB997
:10429000284670BD0025F3E70020FFF7DFFAF6E7B8
:1042A000FFF73CFD0028F3D0044B1E744FF0FF35A0
:1042B000EEE70025ECE74FF0FF35E9E70C000020C2
:1042C0002E4B93F82430002B49D0F0B583B005462F
:1042D0000F461646294B9B7A002B43D0274B586834
:1042E000196801AB0222897A0078FEF772FA002879
:1042F0003BD19DF804309DF8054044EA0324AC42CC
:1043000023D31E4B58684388B4EB530F0DD91B4B76
:10431000196801AB0122497C0078FEF75AFA38BBD4
:104320009DF8043013F0100F14D1144B586819681D
:104330003B46EAB2C97A0078FEF74BFAD8B9B4FB2B
:10434000F5F4013C347003B0F0BD002333704FF03E
:10435000FF30F8E7FFF7E2FC6FF00100F3E74FF002
:10436000FF3070474FF0FF30EDE74FF0FF30EAE7E6
:104370004FF0FF30E7E74FF0FF30E4E70C0000209C
:10438000584B9B7C834200F09C8010B582B0044661
:10439000002844D0534B586819680DF107030122D7
:1043A00009790078FEF715FA002840F08C809DF816
:1043B000073023F020038DF807304A4B58681968FE
:1043C0000DF10703012209790078FEF7D1F90028E1
:1043D0007CD10320FCF7EEFD02238DF80730414B22
:1043E00093F8223013B182238DF807303D4B93F8B8
:1043F00023302BB19DF8073043F030038DF80730A0
:10440000384B586819680DF107030122097D0078BF
:10441000FEF7AEF9002844D04FF0FF3044E0314BB6
:10442000586819680DF10703012209790078FEF731
:10443000D0F900284DD12B4B9B7A13F0010F35D0CA
:104440009DF8073043F020038DF80730254B58685E
:1044500019680DF10703012209790078FEF788F940
:10446000002839D10320FCF7A5FD1E4B93F822301C
:104470001BB380238DF807301A4B93F823302BB1F0
:104480009DF8073043F030038DF80730154B58681E
:1044900019680DF107030122097D0078FEF768F91C
:1044A000E8B9104B9C74002002B010BD9DF8073095
:1044B00023F020038DF80730C8E700238DF807307C
:1044C000DAE7002070474FF0FF30EDE74FF0FF30A4
:1044D000EAE74FF0FF30E7E74FF0FF30E4E74FF057
:1044E000FF30E1E70C0000201B4B93F823308342A0
:1044F0002DD010B582B0044628B330238DF8073094
:10450000154B9B7C2BB19DF8073043F002038DF8CF
:104510000730114B93F822302BB19DF8073063F030
:104520007F038DF807300C4B586819680DF10703AD
:104530000122097D0078FEF71BF950B9064B83F87C
:10454000234002B010BD00238DF80730D8E70020CB
:1045500070474FF0FF30F4E70C00002028285FD8A8
:1045600010B582B00446B8B90020FFF7BDFF0023A4
:104570008DF8043007238DF805302E4B58681968E4
:1045800001AB0222897C0078FEF7F2F800284AD1BC
:10459000284B187502B010BD0120FFF7A5FF20239E
:1045A0008DF80430012C26D0052C2BD9142C30D8B2
:1045B00002238DF805300A20FFF7A4FD9DF8053091
:1045C0009B0143F007038DF805301A4B58681968B2
:1045D00001AB0222897C0078FEF7CAF830BB154B8C
:1045E00008229A7200241C7301221A752046FFF7D4
:1045F00035FE2046CEE700238DF805300520FFF775
:1046000081FDDBE701238DF805300520FFF77AFDFA
:10461000D4E703238DF805301420FFF773FDCDE7B1
:104620004FF0FF3070474FF0FF30B3E74FF0FF30EF
:10463000B0E700BF0C000020264B9B7A002B40D037
:1046400010B582B00446234B93F82430002B3BD1A5
:10465000204B1B7D33B1431E9BB2272B0AD9002070
:10466000FFF77CFF032C0AD9B4F57A7F08D94FF401
:104670007A7405E0C0B2FFF771FF00201FE0042448
:104680004FF47A7393FBF4F3013B8DF80730114B31
:10469000586819680DF10703012249780078FEF780
:1046A00067F8A0B99DF8073001334FF47A7090FB9A
:1046B000F3F0084BD8814008FFF724FD002002B03A
:1046C00010BD4FF0FF3070474FF0FF30F7E74FF06D
:1046D000FF30F4E70C00002010B582B0044610F063
:1046E000700F50D001238DF80730334B586819688C
:1046F0000DF107030122897C0078FEF739F80028C4
:104700004AD19DF8073003F0BF032B4A13730023EF
:104710008DF8073014F0400F02D104238DF80730D4
:1047200014F0200F05D19DF8073043F002038DF8F7
:10473000073014F0100F05D19DF8073043F0010346
:104740008DF8073014F0080F05D19DF8073043F0BD
:1047500038038DF80730184B586819680DF10703B6
:104760000122C97C0078FEF703F8D8B90CB1082CF7
:104770001ED1114B9C7200241C753220FCF71AFCD0
:10478000204602B010BD18B100238DF80730ACE709
:1047900040238DF80730A8E7074B00229A724FF0AC
:1047A000FF30EEE7044B00229A724FF0FF30E8E74B
:1047B0000020FFF799FEDCE70C00002010B582B066
:1047C00080238DF80030604B586819686B460122D1
:1047D000897C0078FDF7CCFF18B10124204602B097
:1047E00010BD6420FCF7E6FB00238DF80030564B2B
:1047F000586819686B460122897C0078FDF7B8FF7C
:10480000002840F08E80504B586819686B4606228D
:10481000897D0078FDF7DDFF002840F084809DF859
:1048200005309B0003F004039DF80320520002F0C2
:10483000020213439DF8011001F0010119434FD00A
:10484000012944D0022946D13F4B0022DA743E4B65
:10485000FF229A721A725A72DA724FF6FF71D98178
:104860001A749A7401221A7383F82220002283F8A2
:1048700023205A751A75C3F81620C3F81A20C3F8F6
:104880001E2083F8242083F82520DA844FF4FA6070
:10489000FFF75EFB00284AD10220FFF7C7FB002884
:1048A00047D12A20FFF72EFC002844D13220FFF701
:1048B000C3FE002841D1FFF7D1FC00283FD1FFF70C
:1048C0005FFD044600283CD1FFF706FF86E71E4B3C
:1048D0000122DA74BBE71D4802F04EFF04247DE795
:1048E000194B586819686B460122C9780078FDF7A2
:1048F00070FFD0B99DF8003013F00F0305D0042BE2
:1049000008D0114B0022DA74A1E7114802F09CFF95
:10491000062463E70F4802F097FF0B4B0122DA747D
:1049200095E702245AE7032458E7052456E70724AD
:1049300054E7082452E7092450E70A244EE70B24E1
:104940004CE70C244AE700BF0C00002068A00008D8
:1049500090A00008DCA000083AB370B582B00C4605
:104960001646194B9B7A1BB3030A8DF80430C0B26C
:104970008DF805000844144B5D686B8998421ADC79
:10498000114B196801AB0222097E2878FDF7F0FE71
:10499000A0B90D4B586819683346E2B2497D0078DA
:1049A000FDF7E6FE68B902B070BD4FF0FF3070470A
:1049B0004FF0FF30F7E74FF0FF30F4E74FF0FF30F4
:1049C000F1E74FF0FF30EEE70C0000203AB370B58E
:1049D00082B00C461646194B9B7A1BB3030A8DF81E
:1049E0000430C0B28DF805000844144B5D686B8933
:1049F00098421ADC114B196801AB0222097E287813
:104A0000FDF7B6FEA0B90D4B586819683346E2B2FF
:104A1000497D0078FDF7DDFE68B902B070BD4FF04A
:104A2000FF3070474FF0FF30F7E74FF0FF30F4E70B
:104A30004FF0FF30F1E74FF0FF30EEE70C000020C1
:104A40002DE9F04F87B09A46294B93F82530002B7B
:104A50003CD107468846914600293AD00024BC4202
:104A60001BD23E1B102EA8BF1026B5B208EB040BBC
:104A70005A4629462046FFF76FFF68BB02AA29461F
:104A80002046FFF7A3FF50BB2A4602A9584602F072
:104A9000DBFF38BB2544ACB2E1E74FEA19238DF8C0
:104AA00004308DF80590124B5868196801AB02224A
:104AB000897E0078FDF75CFEB8B90D4B012283F8C2
:104AC0002520A3F826A007B0BDE8F08F4FF0FF30F7
:104AD000F9E74FF0FF30F6E74FF0FF30F3E74FF024
:104AE000FF30F0E76FF00100EDE74FF0FF30EAE74D
:104AF0000C000020234B93F8243083423CD030B587
:104B000083B018B31F4B93F82530002B36D000200C
:104B1000FEF7A4FE0020FFF733FC1A4DE88CFFF7E8
:104B20008BFD00248DF8074068680DF10703012212
:104B300023210078FDF71CFE012085F82400FEF7F4
:104B40008DFEFFF7EBF8204603B030BD0020FEF7E6
:104B500085FE0C4D2B7C8DF8073068680DF107033E
:104B6000012223210078FDF703FE002485F824406C
:104B7000FFF7D4F82046E7E7002070474FF0FF30FA
:104B8000E2E700BF0C0000202DE9F04188B00546A7
:104B90000E463D4B93F82470FFB901A8FFF7BAF910
:104BA0000DF10700FFF720FA6846FFF789FA0DF1CB
:104BB0000200FFF7F1FA344B93F80A800DF106007A
:104BC000FFF744FB0024012C0CDC00223146284670
:104BD000FEF790FE30B10134F5E70020FFF78AFFC1
:104BE0000127DAE7022C1FD00024012C07DC012268
:104BF00002A905A8FEF77EFE08B10134F5E7022CF4
:104C000014D002A93046FEF751FDC6B205A92846C8
:104C1000FEF7A2FD10F0FF0F04D000243EB944F0CF
:104C2000020404E00124F9E7002400E00024164B0C
:104C3000FF221A725A72DA724FF6FF71D9819A7294
:104C40001A7401221A73BDF80400FFF781F99DF868
:104C50000700FFF7EBF9BDF80000FFF753FABDF8C6
:104C60000200FFF7E9FC4046FFF736FD9DF806001D
:104C7000FFF7F4FA1FB9204608B0BDE8F081012023
:104C8000FFF738FFF7E700BF0C00002000B589B040
:104C900002A905A8FFF778FF032803D0012009B077
:104CA0005DF804FB01A8FFF785FA9DED017ADDEDC3
:104CB000057AF8EEE77A67EE877AFDEEE77ACDEDD2
:104CC000057ADDED067AF8EEE77A67EE877AFDEE93
:104CD000E77ACDED067ADDED077AF8EEE77A67EE52
:104CE000877AFDEEE77ACDED077A05A8FDF73CFF60
:104CF0000DF10200FFF784FABDF80230029A03FBBF
:104D000002F20292039A03FB02F20392049A02FB5C
:104D100003F3049302A8FDF7AFFF0020BFE790F96B
:104D20000030002B01DD002070470FDB90F90130CF
:104D3000002B01DD012070470ADB90F90230002BC7
:104D400008DC01DB0720704706207047042070470D
:104D5000052070470220704738B50546FFF7DFFF92
:104D60000446E81CFFF7DBFF44EAC00424B2A81D98
:104D7000FFF7D5FF44EA801080B238BD70470000CD
:104D800008B5FDF7C9FBFFF719FD10F0FF0003D0D0
:104D9000012848D0002008BD7820FFF79DFC10F0C6
:104DA000FF0F01D00120F6E77820FFF757FA10F047
:104DB000FF0F2AD16420FFF73FFC10F0FF0F26D130
:104DC000FDF720FE10F0FF0F23D11848FFF7C4FFB6
:104DD000FDF724FE10F0FF0F1DD140F27310FEF717
:104DE000FDF910F0FF0F18D16420FDF7BFFF10F0A0
:104DF000FF0F14D1FFF74AFF98B90120FFF77AFEA1
:104E000010F0FF00C7D00920C5E70220C3E7032048
:104E1000C1E70420BFE70520BDE70620BBE7072068
:104E2000B9E70820B7E70A20B5E700BF0000002077
:104E300070B52DED088B8CB006460D4614460DF16D
:104E4000190301930DF11A0300930BAB02AA07A9F2
:104E500009A8FEF7CFFA002840F0A380BDF91A3068
:104E600013F4807F00F09F80DDED027AB8EEE78AD0
:104E7000DFED517A28EE278A9DED037AB8EEC79AC6
:104E800029EE279A9DED047AF8EEC78A68EEA78A84
:104E90009DED057AF8EEC79A69EEA79AB8EE00AADA
:104EA00029EE0AAA2AEE297A78EE08AA6AEEA87AEA
:104EB00077EE277A17EE900AFBF726FB41EC100BF2
:104EC00000F028FA51EC100B39A3D3E90023FBF7CB
:104ED00073FBFBF769FE306078EEA87A27EEA9BA7B
:104EE0006AEE89AA3BEE2ABA2AEE09AA67EEA87AE8
:104EF0003AEE67AAF7EE007A7AEE277A17EE900A72
:104F0000FBF702FB41EC1A0B1BEE100AFBF7FCFA55
:104F1000B0EE4A1AF0EE6A1A41EC100B00F02EFACD
:104F200051EC100B22A3D3E90023FBF745FBFBF761
:104F30003BFE286069EE287A28EE297A77EE877A98
:104F400037EEA7AA28EE088A29EE099A38EE098AD0
:104F500068EEA88A38EE688A69EEA99A78EE697ACE
:104F600017EE900AFBF7D0FA41EC180B1AEE100A74
:104F7000FBF7CAFAB0EE481AF0EE681A41EC100BD3
:104F800000F0FCF951EC100B09A3D3E90023FBF767
:104F900013FBFBF709FE206000200CB0BDEC088B72
:104FA00070BD0120F9E70220F7E700BFAFF30080F2
:104FB0006666666666A64C4000008030074B1B683C
:104FC0001B6823B9064B4FF0FF321A607047034B42
:104FD0001B68DB681A68024B1A6070473C070020A8
:104FE00020070020F8B5514B1B68002B40F097803C
:104FF0004F4B1C6801341C607CB94E4B1B681B680E
:105000000BBB4C4A11684C4B1868106019604B4A36
:10501000136801331360FFF7D1FF494B1B68A342AC
:1050200018D90020474B1B68DB6A03EB83039A0007
:10503000454B9B58012B00D90120444B1B68002B8A
:1050400072D0012070E040F6B7224149414802F099
:1050500093FBD6E7002037E0394B4FF0FF321A6060
:10506000E0E7374B1A60DDE7D968516042E0002184
:105070009962116801391160DA6A01219140364E56
:10508000376839433160304902EB82024FEA820CC3
:105090008C44DCF804209A609668DE607560956048
:1050A000DA6A02EB820C4FEA8C056E185E614D598C
:1050B00001354FEA8C0C41F80C50DA6A214B1B6821
:1050C000DB6A9A4200D901201A4B1B681B68002B2F
:1050D000C2D0184B1B68DB68DB685A689442C0D3A7
:1050E0005A699D68D968A9609D684D6051681D1D09
:1050F000A942B9D0002159611168013911609A6A39
:10510000002AB9D0DE69196AB160DE694E6056685E
:1051100003F118018E42AAD1196A5160A7E70F4A1C
:105120001368013313600020F8BD00BF1C07002086
:10513000340700203C070020380700202407002007
:1051400020070020C0090020400700202807002079
:10515000FCA000080CA10008300700202C0700204C
:105160001E4B1B681BB11E4B01221A60704710B505
:105170001B4B00221A601B4B1C68B4FA84F4E4B287
:10518000C4F11F0404EB84029300174AD358C3B13F
:10519000154904EB840293000B445A6852685A6024
:1051A00004EB8400830008330B449A4210D004EBD4
:1051B0008404A2000C4B13445B68DA680B4B1A6042
:1051C00010BD40F6F6320A490A4802F0D5FADFE788
:1051D00051688200044B13445960E8E71C07002023
:1051E000280700203007002040070020C0090020C9
:1051F000FCA000080CA10008000000000000000056
:10520000074B19680868B0E8F04F80F30988BFF3CE
:105210006F8F4FF0000080F311887047AFF300806C
:10522000C009002000000000000000000000000095
:10523000EFF30980BFF36F8F154B1A681EF0100F44
:1052400008BF20ED108A20E9F04F10602DE9090019
:105250004FF0500080F31188BFF34F8FBFF36F8F73
:10526000FFF77EFF4FF0000080F3118809BC19683A
:105270000868B0E8F04F1EF0100F08BFB0EC108ABD
:1052800080F30988BFF36F8F704700BFAFF30080D2
:10529000C009002008B54FF0500383F31188BFF315
:1052A0006F8FBFF34F8FFFF79DFE28B14FF0E023C4
:1052B0004FF08052C3F8042D002383F3118808BDFA
:1052C000DFF834D0FBF7BAFD0C480D490D4A002336
:1052D00002E0D458C4500433C4188C42F9D30A4AAB
:1052E0000A4C002301E013600432A242FBD302F017
:1052F00013FCFBF7D1FD70470000022000000020E6
:105300000002002094BD000800020020140B0020C1
:10531000FEE7000038B52DED028B55EC104B00F088
:105320006FF922462B4620462946B0EE408AF0EE21
:10533000608AFBF7DBFB50B945EC104B00F020F81E
:105340000C4B51EC100B0022FBF7C6FB30B9B0EE52
:10535000480AF0EE680ABDEC028B38BD02F0D6FBBD
:10536000BDEC028B034621221A600348BDE8384099
:1053700000F03AB90000F03F2CA0000800F084BB18
:1053800051EC100B024621F0004343EC102B704708
:1053900008B52DED028BB0EE408A00F02DF9B4EE89
:1053A000488AF1EE10FA06D6DFED098AB4EEE88AF3
:1053B000F1EE10FA02D4BDEC028B08BD02F0A6FBA0
:1053C00088EEA80ABDEC028B2123036008BD00BF54
:1053D0000000000038B510EE105A25F00044B4F17A
:1053E000A14FF0EE407A0DD3B4F1FF4F5BD8DFED63
:1053F000517A9FED517A002DCCBFB0EE470AB0EE46
:10540000670A38BD4D4B9C425CD8B4F1445F4DD324
:105410004FF0FF3327EEA76A9FED495A9FED497A77
:10542000DFED495ADFED494A66EE066A5A1CA6EEE0
:10543000857AE6EEA54A9FED465ADFED465AA7EE7D
:10544000265AE4EEA65A9FED447ADFED444AA5EED3
:10545000267AE5EEA64A9FED425ADFED425AA7EEC4
:10546000265A9FED417AA4EEA67AE5EE265A27EE5B
:10547000267AA5EE867A27EE877A38D03B493C4AD1
:1054800001EB8301D1ED006A37EE667A02EB83030C
:10549000D3ED006A37EE677A002D36EEC70AB0DA30
:1054A000B1EE400A38BD30EE000A38BD9FED317ACA
:1054B00030EE077AF7EE006AB4EEE67AF1EE10FA13
:1054C000A6DD38BD00F05CF82B4B9C4212D8A3F54A
:1054D000D0039C4223D8F0EE007ABFEE007AA0EE13
:1054E000277A002330EE270AC7EE007A92E737EEDC
:1054F000C70A38BD214B9C420BD8F7EE087AB7EEAD
:10550000007AA0EE277A022330EE670AC0EE077A0F
:1055100080E7BFEE007AC7EE007A03237AE7F7EE62
:10552000007A30EE677A30EE270A0123C7EE007A60
:1055300070E700BFDB0FC9BFDB0FC93FFFFFDF3ED6
:10554000D769853C59DA4B3D21A215BD6BF16EBD83
:10555000356B883D95879DBD6E2EBA3D388EE3BD77
:105560002549123EABAAAA3ECDCC4CBEA0B5000840
:10557000B0B50008CAF24971FFFF973FFFFF1B401B
:1055800010EE103A23F0004300EE103A704700BFCF
:1055900010EE103A114A23F00043934218D9B3F1A8
:1055A000FF4F02D330EE400A704700B583B0684623
:1055B00000F0CAFD400000F00200DDED010A9DEDA3
:1055C000000AC0F1010000F0DFFC03B05DF804FB4D
:1055D000DFED030A012000F0D7BC00BFDA0F493F1E
:1055E00000000000000000009FED010B704700BFAD
:1055F000000000000000F87FB1EEC00A704700BF55
:105600002DE9704F55EC104BC94B25F000489845DB
:1056100086B032D908F1404808F5801858EA0408E5
:105620000ED022462B4620462946FAF70DFE0246AA
:105630000B46FBF7EBF841EC100B06B0BDE8708FA2
:105640009FA3D3E9002320462946FAF7B5FF024677
:105650000B462046294614461D469BA3D3E900234A
:10566000FAF7AAFF02460B4620462946FAF7EEFD56
:1056700041EC100B06B0BDE8708FAE4B98452E463E
:1056800011D8B8F1795F80F05D8191A3D3E900234F
:1056900020462946FAF7DAFDA74B0022FBF71CFA51
:1056A000002840F0088145EC104BFFF769FEA24945
:1056B00053EC102B0020FAF7C7FDA04B0022FAF79D
:1056C0007BFF85A3D3E9002304460D46FAF774FF58
:1056D00083A3D3E90023FAF7B9FD22462B46FAF754
:1056E0006BFF81A3D3E90023FAF7AEFD22462B46D8
:1056F000FAF762FF7EA3D3E90023FAF7A7FD22465B
:105700002B46FAF759FF7CA3D3E90023FAF79CFD57
:1057100022462B46FAF750FF79A3D3E90023FAF784
:1057200095FD22462B46FAF747FF77A3D3E90023DE
:10573000CDE9020120462946FAF73EFF74A3D3E9DA
:105740000023FAF781FD22462B46FAF735FF72A3B4
:10575000D3E90023FAF77AFD22462B46FAF72CFF0D
:105760006FA3D3E90023FAF76FFD22462B46FAF721
:1057700023FF714B0022FAF769FD45EC104BCDE990
:10578000040100F011FE6E4B98455BEC10AB71D834
:105790005B460022CDE90023504652465946FAF7AF
:1057A00055FDDDE9042380468946DDE90201FBF76A
:1057B0002DF802460B4640464946FAF7FDFE804664
:1057C0008946DDE9000102460B46FAF7F5FE02467E
:1057D0000B4620462946FAF737FD04460D4650464B
:1057E0005946DDE900AB52465B46FAF72FFD02460B
:1057F0000B4620462946FBF709F802460B46FAF706
:1058000025FD02460B4630A1D1E90001FAF71CFD47
:1058100002460B4640464946FAF716FD52460446F4
:105820000D465B4650465946FAF710FD02460B46B8
:105830003DA1D1E90001FAF707FD02460B462046DB
:105840002946FAF701FD02460B4637A1D1E90001CE
:10585000FAF7FAFC41EC100B002E3FF7EEAE10EE1B
:10586000901A10EE102A01F1004343EC102B06B001
:10587000BDE8708FDDE90423DDE90201FAF7C6FF18
:1058800052465B46FAF798FE52465B46FAF7DEFC54
:1058900002460B46FAF7DAFC0BA3D3E90023FAF72A
:1058A000D3FC02460B4606A1D1E90001FAF7CCFC75
:1058B00041EC100BD0E745EC104BBEE6AFF3008097
:1058C000182D4454FB21F93F075C143326A6913C64
:1058D0009C7500883CE4377E09F7FD0DE13D023FF1
:1058E00088B20175E0EF493F3B8F68B52882A43F3D
:1058F0005544880E55C1C93F7D6FEB0312D6D43F86
:10590000555555555555C53F82922EB1C5B8B33F33
:1059100059018D1B6C06E63FC88A599CE52A004058
:105920004B2D8A1C273A0340182D4454FB21E93F94
:10593000FFFFEF3FFFFFDF3F0000F03F0000E03FD1
:105940003233EF3F22462B4620462946FAF734FEF3
:1059500038A3D3E9002380468946FAF72DFE37A302
:10596000D3E90023FAF772FC42464B46FAF724FECD
:1059700034A3D3E90023FAF767FC42464B46FAF713
:105980001BFE32A3D3E90023FAF760FC42464B46E4
:10599000FAF712FE2FA3D3E90023FAF755FC42468B
:1059A0004B46FAF709FE2DA3D3E90023FAF74EFC84
:1059B00042464B46FAF700FE2AA3D3E9002382466B
:1059C0008B4640464946FAF7F7FD28A3D3E9002362
:1059D000FAF73AFC42464B46FAF7EEFD25A3D3E927
:1059E0000023FAF733FC42464B46FAF7E5FD23A3C2
:1059F000D3E90023FAF728FC42464B46FAF7DCFDD0
:105A00000B4B0022FAF722FC02460B465046594641
:105A1000FAF7FCFE22462B46FAF7CEFD22462B462D
:105A2000FAF714FC41EC100B06B0BDE8708F00BF14
:105A30000000F03F09F7FD0DE13D023F88B201751E
:105A4000E0EF493F3B8F68B52882A43F5544880E5C
:105A500055C1C93F7D6FEB0312D6D43F55555555FF
:105A60005555C53F82922EB1C5B8B33F59018D1B24
:105A70006C06E63FC88A599CE52A00404B2D8A1CDB
:105A8000273A03400000000051EC110B43422DE97E
:105A9000F0470343644E21F0004E4EEAD373B34205
:105AA00055EC104B40D86342234325F0004A4AEAA4
:105AB000D373B342A046A94636D801F1404303F55B
:105AC0008013034302463ED08F1707F002075AEABD
:105AD000080847EAD5772FD05EEA020237D0B645EC
