:020000040800F2
:1000000000000220D16E00088D0E00088F0E00083F
:10001000910E0008930E0008950E000800000000E5
:10002000000000000000000000000000116E000849
:10003000970E000800000000416E0008A56E000841
:10004000216F0008216F0008216F0008216F000850
:10005000216F0008216F0008216F0008216F000840
:10006000216F0008216F0008216F0008216F000830
:10007000216F0008216F0008216F0008216F000820
:10008000216F0008216F0008753C0008216F0008EF
:10009000216F0008216F0008216F0008216F000800
:1000A000216F0008216F0008216F0008216F0008F0
:1000B000FD390008216F0008216F0008216F00083A
:1000C000216F0008216F0008216F0008216F0008D0
:1000D000216F0008C1110008896B0008216F00081A
:1000E000ED350008216F0008216F0008216F00081E
:1000F000216F0008216F0008216F0008216F0008A0
:10010000216F0008216F0008216F0008216F00088F
:10011000216F0008216F0008216F0008216F00087F
:10012000216F0008216F0008216F0008216F00086F
:10013000216F0008216F0008216F0008216F00085F
:10014000216F0008216F0008216F0008216F00084F
:10015000216F0008216F0008216F0008216F00083F
:10016000216F0008216F0008216F0008216F00082F
:10017000216F0008216F0008216F000800000000B7
:08018000216F0008216F000847
:1001900001F0FF01102A2BDB10F0070F08D010F838
:1001A000013B013A8B422DD010F0070F42B3F6D13C
:1001B000F0B441EA012141EA014122F007047FF055
:1001C00000070023F0E80256083C85EA010586EAAC
:1001D000010685FA47F5A3FA87F586FA47F6A5FAE8
:1001E00087F68EB9EED1F0BC01F0FF0102F00702F4
:1001F00032B110F8013B013A83EA010313B1F8D19F
:100200000020704701387047002D06BF354603387F
:10021000073815F0010F07D1013015F4807F02BFB8
:10022000013015F4C03F0130F0BC0138704700BF09
:10023000034613F8012B002AFBD1181A0138704726
:1002400081F0004102E000BF83F0004330B54FEA87
:1002500041044FEA430594EA050F08BF90EA020FF4
:100260001FBF54EA000C55EA020C7FEA645C7FEA87
:10027000655C00F0E2804FEA5454D4EB5555B8BFAA
:100280006D420CDD2C4480EA020281EA030382EA1B
:10029000000083EA010180EA020281EA0303362DAD
:1002A00088BF30BD11F0004F4FEA01314FF4801C80
:1002B0004CEA113102D0404261EB410113F0004F92
:1002C0004FEA03334CEA133302D0524263EB430349
:1002D00094EA050F00F0A780A4F10104D5F1200EE7
:1002E0000DDB02FA0EFC22FA05F2801841F1000142
:1002F00003FA0EF2801843FA05F359410EE0A5F116
:1003000020050EF1200E012A03FA0EFC28BF4CF046
:10031000020C43FA05F3C01851EBE37101F00045FC
:1003200007D54FF0000EDCF1000C7EEB00006EEB09
:100330000101B1F5801F1BD3B1F5001F0CD3490893
:100340005FEA30004FEA3C0C04F101044FEA4452EA
:1003500012F5800F80F09A80BCF1004F08BF5FEA71
:10036000500C50F1000041EB045141EA050130BD51
:100370005FEA4C0C404141EB0101013C28BFB1F563
:10038000801FE9D291F0000F04BF01460020B1FAAE
:1003900081F308BF2033A3F10B03B3F120020CDA81
:1003A0000C3208DD02F1140CC2F10C0201FA0CF05F
:1003B00021FA02F10CE002F11402D8BFC2F1200CC4
:1003C00001FA02F120FA0CFCDCBF41EA0C0190407A
:1003D000E41AA2BF01EB0451294330BD6FEA0404C3
:1003E0001F3C1CDA0C340EDC04F11404C4F12002AE
:1003F00020FA04F001FA02F340EA030021FA04F3C0
:1004000045EA030130BDC4F10C04C4F1200220FA16
:1004100002F001FA04F340EA0300294630BD21FA54
:1004200004F0294630BD94F0000F83F4801306BF1A
:1004300081F480110134013D4EE77FEA645C18BF0E
:100440007FEA655C29D094EA050F08BF90EA020FA5
:1004500005D054EA000C04BF1946104630BD91EA9D
:10046000030F1EBF0021002030BD5FEA545C05D1A0
:100470004000494128BF41F0004130BD14F58004DF
:100480003CBF01F5801130BD01F0004545F0FE4153
:1004900041F470014FF0000030BD7FEA645C1ABF88
:1004A000194610467FEA655C1CBF0B46024650EABF
:1004B000013406BF52EA033591EA030F41F40021EB
:1004C00030BD00BF90F0000F04BF0021704730B571
:1004D0004FF4806404F132044FF000054FF0000146
:1004E00050E700BF90F0000F04BF0021704730B507
:1004F0004FF4806404F1320410F0004548BF4042DC
:100500004FF000013EE700BF42004FEAE2014FEA30
:1005100031014FEA02701FBF12F07F4393F07F4F0B
:1005200081F06051704732F07F4208BF704793F00E
:100530007F4F04BF41F40021704730B54FF4607421
:1005400001F0004521F000411CE700BF50EA010224
:1005500008BF704730B54FF000050AE050EA0102CD
:1005600008BF704730B511F0004502D5404261EB3D
:1005700041014FF4806404F132045FEA915C3FF47E
:10058000D8AE4FF003025FEADC0C18BF03325FEA1B
:10059000DC0C18BF033202EBDC02C2F1200300FACC
:1005A00003FC20FA02F001FA03FE40EA0E0021FAF1
:1005B00002F11444BDE600BF70B54FF0FF0C4CF4DF
:1005C000E06C1CEA11541DBF1CEA135594EA0C0F91
:1005D00095EA0C0F00F0DEF82C4481EA030621EACC
:1005E0004C5123EA4C5350EA013518BF52EA033507
:1005F00041F4801143F4801338D0A0FB02CE4FF0B9
:100600000005E1FB02E506F00042E0FB03E54FF0E8
:100610000006E1FB03569CF0000F18BF4EF0010EE0
:10062000A4F1FF04B6F5007F64F5407404D25FEADC
:100630004E0E6D4146EB060642EAC62141EA55518F
:100640004FEAC52040EA5E504FEACE2EB4F1FD0CD1
:1006500088BFBCF5E06F1ED8BEF1004F08BF5FEA4F
:10066000500E50F1000041EB045170BD06F0004601
:1006700046EA010140EA020081EA0301B4EB5C04AE
:10068000C2BFD4EB0C0541EA045170BD41F48011A6
:100690004FF0000E013C00F3AB8014F1360FDEBFCB
:1006A000002001F0004170BDC4F10004203C35DAA7
:1006B0000C341BDC04F11404C4F1200500FA05F32A
:1006C00020FA04F001FA05F240EA020001F00042CB
:1006D00021F0004110EBD37021FA04F642EB060141
:1006E0005EEA430E08BF20EAD37070BDC4F10C046B
:1006F000C4F1200500FA04F320FA05F001FA04F22F
:1007000040EA020001F0004110EBD37041F100011A
:100710005EEA430E08BF20EAD37070BDC4F1200525
:1007200000FA05F24EEA020E20FA04F301FA05F28D
:1007300043EA020321FA04F001F0004121FA04F235
:1007400020EA020000EBD3705EEA430E08BF20EA05
:10075000D37070BD94F0000F0FD101F0004640003F
:1007600041EB010111F4801F08BF013CF7D041EAC1
:10077000060195F0000F18BF704703F000465200C5
:1007800043EB030313F4801F08BF013DF7D043EA96
:100790000603704794EA0C0F0CEA135518BF95EA4C
:1007A0000C0F0CD050EA410618BF52EA4306D1D1D3
:1007B00081EA030101F000414FF0000070BD50EAF2
:1007C000410606BF1046194652EA430619D094EA7C
:1007D0000C0F02D150EA013613D195EA0C0F05D166
:1007E00052EA03361CBF104619460AD181EA0301BA
:1007F00001F0004141F0FE4141F470014FF0000072
:1008000070BD41F0FE4141F4780170BD70B54FF00C
:10081000FF0C4CF4E06C1CEA11541DBF1CEA13558C
:1008200094EA0C0F95EA0C0F00F0A7F8A4EB05046E
:1008300081EA030E52EA03354FEA013100F0888065
:100840004FEA03334FF0805545EA131343EA12632E
:100850004FEA022245EA111545EA10654FEA0026E3
:100860000EF000419D4208BF964244F1FD0404F59C
:10087000407402D25B084FEA3202B61A65EB0305F8
:100880005B084FEA32024FF480104FF4002CB6EBB5
:10089000020E75EB030E22BFB61A754640EA0C0035
:1008A0005B084FEA3202B6EB020E75EB030E22BF75
:1008B000B61A754640EA5C005B084FEA3202B6EBB6
:1008C000020E75EB030E22BFB61A754640EA9C0075
:1008D0005B084FEA3202B6EB020E75EB030E22BF45
:1008E000B61A754640EADC0055EA060E18D04FEA03
:1008F000051545EA16754FEA06164FEAC30343EAA3
:1009000052734FEAC2025FEA1C1CC0D111F4801F6F
:100910000BD141EA00014FF000004FF0004CB6E768
:1009200011F4801F04BF01430020B4F1FD0C88BF07
:10093000BCF5E06F3FF6AFAEB5EB030C04BFB6EB12
:10094000020C5FEA500C50F1000041EB045170BD05
:100950000EF0004E4EEA113114EB5C04C2BFD4EB32
:100960000C0541EA045170BD41F480114FF0000EB6
:10097000013C90E645EA060E8DE60CEA135594EA32
:100980000C0F08BF95EA0C0F3FF43BAF94EA0C0F35
:100990000AD150EA01347FF434AF95EA0C0F7FF4AA
:1009A00025AF104619462CE795EA0C0F06D152EAFE
:1009B00003353FF4FDAE1046194622E750EA4106E2
:1009C00018BF52EA43067FF4C5AE50EA41047FF4F3
:1009D0000DAF52EA43057FF4EBAE12E74FF0FF3C58
:1009E00006E000BF4FF0010C02E000BF4FF0010C29
:1009F0004DF804CD4FEA410C7FEA6C5C4FEA430CA2
:100A000018BF7FEA6C5C1BD001B050EA410C0CBFF0
:100A100052EA430C91EA030F02BF90EA020F002052
:100A2000704710F1000F91EA030F58BF994208BFB9
:100A300090422CBFD8176FEAE37040F00100704776
:100A40004FEA410C7FEA6C5C02D150EA013C07D1CD
:100A50004FEA430C7FEA6C5CD6D152EA033CD3D018
:100A60005DF8040B704700BF8446104662468C4612
:100A70001946634600E000BF01B5FFF7B7FF002845
:100A800048BF10F1000F01BD4DF808EDFFF7F4FF6E
:100A90000CBF012000205DF808FB00BF4DF808EDF9
:100AA000FFF7EAFF34BF012000205DF808FB00BF1C
:100AB0004DF808EDFFF7E0FF94BF012000205DF83E
:100AC00008FB00BF4DF808EDFFF7CEFF94BF0120F3
:100AD00000205DF808FB00BF4DF808EDFFF7C4FFEC
:100AE00034BF012000205DF808FB00BF4FEA410C35
:100AF0007FEA6C5C02D150EA013C0AD14FEA430C18
:100B00007FEA6C5C02D152EA033C02D14FF0000054
:100B100070474FF0010070474FEA410212F5001292
:100B200015D211D56FF47873B3EB625212D94FEA34
:100B3000C12343F0004343EA505311F0004F23FA1E
:100B400002F018BF404270474FF00000704750EA73
:100B5000013005D111F0004008BF6FF00040704730
:100B60004FF00000704700BF4A0011D212F500128A
:100B700011D20DD56FF47873B3EB62520ED44FEAF5
:100B8000C12343F0004343EA505323FA02F0704775
:100B90004FF00000704750EA013002D14FF0FF30B3
:100BA00070474FF0000070474FEA4102B2F1E04356
:100BB00024BFB3F5001CDCF1FE5C0DD901F0004C44
:100BC0004FEAC0024CEA5070B2F1004F40EB830094
:100BD00008BF20F00100704711F0804F21D113F1C0
:100BE0003872BCBF01F00040704741F480114FEAF9
:100BF0005252C2F11802C2F1200C10FA0CF320FA82
:100C000002F018BF40F001004FEAC1234FEAD3239E
:100C100003FA0CFC40EA0C0023FA02F34FEA430308
:100C2000CCE77FEA625307D150EA01331EBF4FF091
:100C3000FE4040F44000704701F0004040F0FE40AC
:100C400040F40000704700BF7BB972B90029BEBFF5
:100C500000204FF0004106E008BF00281CBF6FF0E5
:100C600000414FF0FF3000F03FB8ADF1080C6DE9E6
:100C700004CE002909DB002B1ADB0AF0AFFFDDF8F8
:100C800004E0DDE9022304B07047404261EB41011A
:100C9000002B1BDB0AF0A2FFDDF804E0DDE90223F4
:100CA00004B0404261EB4101524263EB43037047A1
:100CB000524263EB43030AF091FFDDF804E0DDE903
:100CC000022304B0404261EB41017047524263EBA2
:100CD00043030AF083FFDDF804E0DDE9022304B0FA
:100CE000524263EB43037047704700BF0348044B15
:100CF000834202D0034B03B118477047F40200202F
:100D0000F4020020000000000548064B1B1AD90F12
:100D100001EBA301491002D0034B03B11847704700
:100D2000F4020020F40200200000000010B5064C80
:100D3000237843B9FFF7DAFF044B13B10448AFF34C
:100D400000800123237010BDF40200200000000089
:100D500028BF000808B5054B1BB105490548AFF38E
:100D60000080BDE80840FFF7CFBF00BF00000000D3
:100D7000F802002028BF000882B0002301930093EE
:100D80002A4A136843F480331360284B1B6803F42A
:100D900000330093019B01330193009B1BB9019B1E
:100DA000B3F5A04FF1D1214B1B6813F4003F06D0DF
:100DB00001230093009B012B04D002B07047002355
:100DC0000093F7E7194B1A6C42F080521A641849E5
:100DD0000A6842F440420A609A689A609A6842F44B
:100DE00000429A609A6842F4A0529A60114A5A608E
:100DF0001A6842F080721A600C4B1B6813F0007F77
:100E0000FAD00D4B40F205721A60A3F580639A6820
:100E100022F003029A609A6842F002029A60034B41
:100E20009B6803F00C03082BF9D1C6E70038024099
:100E30000070004019544007003C024010B5104CAF
:100E4000D4F8883043F47003C4F888300D4B1A6826
:100E500042F001021A60002199601A6822F084723F
:100E600022F480321A60084A5A601A6822F48022FA
:100E70001A60D960FFF780FF4FF00063A36010BDD8
:100E800000ED00E000380240103000247047FEE71B
:100E9000FEE7FEE7FEE7704700B583B002F044FED0
:100EA00028B14B4808F042FD01F0C6FC17E0494864
:100EB00008F03CFDF8E701214FF0804000F092FC83
:100EC0002DE0454BD3ED000A444B93ED000A01F0B1
:100ED0007DFA51E000214FF0804000F083FC01F0EA
:100EE000ABFC3F4B08220021084601F0F5FD01F064
:100EF0008FFC4FF4FA7000F0B7F83A4B082200214B
:100F0000084601F0E9FD01F083FC4FF4FA7000F0AF
:100F1000ABF8354B1B78002BE3D0052BCBD001F081
:100F20008BFC25E02D4B1868FFF7EEFACDE90001A8
:100F30002E4B06220021084601F0CEFD264B1868F4
:100F4000FFF7E2FACDE90001294B0622102100202B
:100F500001F0C2FD274B1868FFF7D6FACDE9000172
:100F6000254B06222021002001F0B6FD01F050FCA7
:100F70001D4B1B78042BA4D01B4B1B78002BA9D036
:100F8000164BD3ED007AF5EE407AF1EE10FAC9D1A6
:100F9000114BD3ED007AF5EE407AF1EE10FAC1D1A3
:100FA00001F04AFC154B08220021084601F094FD8F
:100FB000134B08221021002001F08EFD01F028FCC7
:100FC0004FF47A7000F050F805F082FFAAE700BFF6
:100FD00040BF000858BF00082C0300203003002049
:100FE00070BF000880BF000894080020B4BF00084C
:100FF000C0BF000824030020C8BF000890BF00083D
:10100000A0BF00084FF0E0231A6942F004021A6101
:10101000044A10601A6942F001021A616FF07042CE
:101020005A6170473403002010B44FF0E022546935
:101030000C4B1B6800FB03FC9369002104E0E01AE1
:1010400002441144614509D21A464FF0E0239B69DE
:101050009A42FAD0F3D9D21A1144F3E75DF8044B5F
:10106000704700BF3403002008B54FF47A7303FBC8
:1010700000F0FFF7D9FF08BD10464FF0000C944573
:1010800010DA00B5084B1B8813F0400FFAD011F8A6
:101090000CE0054BA3F804E00CF1010C8445F1DBF6
:1010A0005DF804FB704700BF00100140F0B587B049
:1010B00006460121084600F057FA0121102000F0F1
:1010C0006FFA1E4F07220921384600F0CEFA072298
:1010D0000A21384600F0C9FA4FF4C0630493022392
:1010E0008DF814308DF8153000248DF81640012548
:1010F0008DF8175004A9384600F060FA0096ADF854
:101100000440ADF80640ADF80840ADF80C400C23A3
:10111000ADF80A3004F1804404F58834694620466D
:1011200000F0E2F82946204600F044F92A4640F251
:101130002551204600F054F907B0F0BD00000240F0
:1011400030B585B004460121084600F00DFA0121B2
:101150004FF4003000F016FA174D072202212846FE
:1011600000F083FA07220321284600F07EFA0123CB
:1011700002220C21284602F06DFC00940023ADF8F9
:101180000430ADF80630ADF80830ADF80C300C2363
:10119000ADF80A30094C6946204600F0A5F8012157
:1011A000204600F007F9012240F22551204600F0C8
:1011B00017F905B030BD00BF0000024000440040F8
:1011C00008B540F225511A4800F030F900B908BDC1
:1011D000174800F001F9C0B2164A1388B2F900208E
:1011E000002AF4DB13F4804F0CD00A2803D0114BF3
:1011F00000221A80EBE76FEA43436FEA53430D4A3C
:101200001380E4E70D280DD0C3F30D020A4988547A
:1012100001339BB2074A1380C72BD8D9134600224B
:101220001A80D4E743F48043024A1380CFE700BF1B
:1012300000100140380300203C03002040F0BF6054
:1012400040F40030014BD860704700BF00ED00E073
:10125000C378FBB1154BDA68D243C2F30222C2F164
:101260000401C9B20F23134142788A40D2B2817877
:101270000B4013431B01DBB202780D490A4482F88C
:101280000033037803F01F005B090122824041F81C
:1012900023207047037803F01F015B0901228A4075
:1012A0002033034941F82320704700BF00ED00E0E0
:1012B00000E100E0C06C80B2704742685FFA81FCD8
:1012C000012303FA0CF31A40036813EA112302D036
:1012D0001AB90020704700207047012070476FEA5C
:1012E000112101607047000030B585B004460D46FD
:1012F000038A9BB223F44053CA8813430382838931
:101300009BB223F4B05323F00C03898828896A899F
:1013100001430A431343A381A38A9BB223F440737E
:10132000AA891343A382684600F0C2F81F4B9C426F
:1013300005D003F580639C4201D0029B00E0039B33
:10134000A28912F4004F1FD103EB830303EB830345
:101350002A689200B3FBF2F3154AA2FB031252096A
:101360001101642002FB1033A28912F4004F14D142
:101370001B0132330E4AA2FB0323C3F343130B4377
:101380009BB2238105B030BD03EB830303EB8303E2
:101390002A685200B3FBF2F3DEE7DB003233044A83
:1013A000A2FB0323C3F342130B43E9E70010014000
:1013B0001F85EB5129B183899BB243F4005383818C
:1013C000704783899BB223F400539BB2838170479B
:1013D000C1F30801818070478088C0F3080070471E
:1013E000C1F3421C01F01F0101238B40BCF1010F2E
:1013F00008D0BCF1020F07D014303AB10268134391
:10140000036070470C30F8E71030F6E7026822EA14
:101410000303036070470388194201D0012070471D
:1014200000207047C94389B201807047C1F342125E
:1014300001F01F0C012303FA0CF3012A0FD0022A3A
:1014400011D0828A92B21340090A012202FA01F1F4
:10145000028892B20A4053B15AB90020704782897B
:1014600092B21340F0E7028A92B21340ECE70020F8
:10147000704701207047000010B401F00302920091
:101480004FF00F0C0CFA02FC8908084B023153F89C
:10149000214024EA0C0443F8214053F821409040B5
:1014A000044343F821405DF8044B70470038014085
:1014B00010B4294B9B6803F00C03042B21D0082B9C
:1014C00022D0002B45D1254B0360234CA368C3F3E6
:1014D00003132349CA5CD2B20368D3404360A268B5
:1014E000C2F382228A5CD2B223FA02F28260A2683C
:1014F000C2F342328A5CD2B2D340C3605DF8044B7F
:101500007047184B0360E0E7134B59685A6802F0C4
:101510003F0211F4800F12D0124BB3FBF2F30E4ACC
:101520005268C2F3881202FB03F30B4A5268C2F3FB
:10153000014201325200B3FBF2F30360C5E7074BEF
:10154000B3FBF2F3044A5268C2F3881202FB03F3BE
:10155000EBE7024B0360B8E7003802400024F400D8
:10156000FCC2000800127A0021B1054A136B034344
:1015700013637047024A136B23EA00031363704737
:101580000038024021B1054A136C034313647047CD
:10159000024A136C23EA00031364704700380240C8
:1015A00021B1054A536C034353647047024A536C9C
:1015B00023EA0003536470470038024000220F2AD8
:1015C0004DD810B514E0C36894B264004FF0030E18
:1015D0000EFA04FE23EA0E03C360C36891F807E025
:1015E0000EFA0CFC43EA0C03C36001320F2A35D813
:1015F000012393400C68A343F7D104684FEA420CDF
:10160000032303FA0CF36FEA030E24EA03030360D7
:1016100003680C7904FA0CF4234303600B79013B53
:10162000DBB2012BCFD883680EEA030383608368A3
:101630004C7904FA0CF42343836043681FFA82FE5A
:10164000012404FA0EF423EA0403436044688B790E
:1016500003FA0EF39BB223434360B4E710BD704717
:101660000AB1018370474183704710B401F007034A
:101670009B009A40C908083150F821404FF00F0CE8
:101680000CFA03F324EA030340F8213050F8213028
:10169000134340F821305DF8044B70478379002BE9
:1016A00036D010B4204B1A68016822EA01021A6091
:1016B0005A68016822EA01025A60027902F1804206
:1016C00002F59E3211680468214311609A6801682E
:1016D00022EA01029A60DA68016822EA0102DA600D
:1016E0004379102B0AD003F1804303F59E331A6827
:1016F00001680A431A605DF8044B70470A4B9A6808
:1017000001680A439A60DA6801680A43DA60F2E71E
:10171000037903F1804303F59E331A68016822EAD6
:1017200001021A60704700BF003C0140034B5B6937
:10173000034201D00120704700207047003C014067
:10174000014B5861704700BF003C014003889BB2C9
:101750001B4A904212D002F5806290420ED0B0F146
:10176000804F0BD0A2F58032904207D002F5806204
:10177000904203D002F58062904203D123F07003BF
:101780004A8813430F4A904208D002F58062904283
:1017900004D023F440739BB20A89134303804B683F
:1017A000C3620B880385064B984203D003F5806320
:1017B000984201D18B7A038601238382704700BF50
:1017C000000001400010004029B103889BB243F0A3
:1017D00080030380704703889BB223F080039BB291
:1017E0000380704729B103889BB243F00103038053
:1017F000704703889BB223F001039BB203807047BC
:1018000010B5038C9BB223F001039BB20384B0F8A4
:1018100020C01FFA8CFCB0F804E01FFA8EFE028B89
:1018200092B222F073020B881A432CF0020C8B89BF
:101830004CEA030C4B8843EA0C030F4CA04203D044
:1018400004F58064A0420FD123F00803CC89234320
:1018500023F004038C8823432EF4407E0C8A4EEA46
:10186000040E4C8A44EA0E0EA0F804E002838A6853
:101870004263038410BD00BF0000014000B5038C2B
:101880009BB223F010039BB20384028C92B2B0F897
:1018900004E01FFA8EFEB0F818C01FFA8CFC2CF47E
:1018A000E64C0B881B029BB24CEA030C22F0200290
:1018B0008B891B019BB21A434B881B019BB21343BC
:1018C000134A904203D002F58062904217D123F070
:1018D0008003CA89120192B2134323F040038A881D
:1018E000120192B213432EF4406E0A8A920092B211
:1018F0004EEA020E4A8A920092B242EA0E0EA0F816
:1019000004E0A0F818C08A68826303845DF804FBD1
:101910000000014000B5038C9BB223F480739BB29E
:101920000384028C92B2B0F804E01FFA8EFEB0F885
:101930001CC01FFA8CFC2CF0730C0B884CEA030CB7
:1019400022F400728B891B029BB21A434B881B0244
:101950009BB21343134A904203D002F58062904237
:1019600017D123F40063CA89120292B2134323F4FD
:1019700080638A88120292B213432EF4405E0A8A70
:10198000120192B24EEA020E4A8A120192B242EA61
:101990000E0EA0F804E0A0F81CC08A68C26303849D
:1019A0005DF804FB0000014010B5038C9BB223F4EA
:1019B00080539BB20384B0F820C01FFA8CFCB0F8AF
:1019C00004E01FFA8EFE828B92B222F4E6420B886C
:1019D0001B029BB21A432CF4005C8B891B039BB245
:1019E0004CEA030C4B881B039BB243EA0C030C4CE0
:1019F000A04203D004F58064A04209D12EF4804EA9
:101A0000B1F810C04FEA8C1C1FFA8CFC4EEA0C0E89
:101A1000A0F804E082838A680264038410BD00BFDA
:101A200000000140038B9BB223F008030B430383A8
:101A30007047038B9BB223F40063090289B20B4306
:101A400003837047838B9BB223F008030B4383838C
:101A50007047838B9BB223F40063090289B20B4366
:101A60008383704749B1B0F844306FEA43436FEA6B
:101A700053439BB2A0F844307047B0F84430C3F3EE
:101A80000E03A0F84430704722B183899BB20B4308
:101A9000838170478389C94389B219408181704726
:101AA000028A83890B40114202D01BB90020704783
:101AB0000020704701207047C94389B201827047F6
:101AC00010B52DED028B044630EEC08A2A4B83ED13
:101AD000008A2A4BD3ED007A77EE887AC3ED007A3C
:101AE000274B1868FEF710FD21A3D3E90023FEF76A
:101AF000D5FF10B1214B00221A60204BD3ED007AA4
:101B00009FED207AF4EEC77AF1EE10FA24D583ED3A
:101B1000007A1D4BD3ED007A78EE677A1B4AC2ED4E
:101B2000007A94ED000A28EE000A94ED017A134A37
:101B3000D2ED006A27EE267A30EE070A94ED027A9B
:101B400067EE877A30EE270A114A82ED000A83EDAC
:101B5000008ABDEC028B10BD9FED0E7AF4EEC77AC1
:101B6000F1EE10FAD5DD054B83ED007AD1E700BF29
:101B70009A9999999999E93F400400203C040020E2
:101B800024030020004003C6380400203404002051
:101B9000300400200040034608B52DED068BF0EE22
:101BA000408AB0EE608AB5EEC00AF1EE10FA00F19C
:101BB000A680714B83ED000AB5EEC08AF1EE10FAF3
:101BC00000F1A3806D4B83ED008A6B4BD3ED007A5F
:101BD0009FED6BAAC7EE8A7A17EE900AFEF794FC87
:101BE00063A3D3E90023FEF7E7FCFEF7DDFF09EE70
:101BF000100A624BD3ED007AC7EE8A7A17EE900A8C
:101C0000FEF782FC5AA3D3E90023FEF7D5FCFEF7CA
:101C1000CBFF09EE900AB0EE490A05F05FFBB0EE8B
:101C2000409A60EE00AAB0EE690A05F057FBF0EEAC
:101C3000409A20EE000A3AEE800A05F0DDF905F040
:101C4000FDF910EE100AFEF75FFC00224D4BFEF787
:101C5000B3FC47A3D3E90023FEF7D8FDFEF7A4FFAA
:101C600007EE900A484B1860C7EE8A7A17EE900A82
:101C7000FEF74AFC3EA3D3E90023FEF79DFCFEF7E6
:101C800093FF00EE100A05F029FBF6EE0C7A20EE29
:101C900027AA3E4B83ED00AA89EE890A05F0CEF90A
:101CA00010EE100AFEF730FC0022364BFEF784FCE3
:101CB0002FA3D3E90023FEF7A9FDFEF775FF07EE7A
:101CC000900A334B1860B5EEC08AF1EE10FA22D4B8
:101CD000B5EEC08AF1EE10FA24DDF5EEC08AF1EE21
:101CE00010FA36D4F5EEC08AF1EE10FA1ADD9FED47
:101CF000297A77EE677A284BC3ED007A12E0F1EE8D
:101D0000407A1D4BC3ED007A56E7F1EE487A1B4B43
:101D1000C3ED007A59E7F5EEC08AF1EE10FA0BDD5B
:101D20001D4B1860F7EE007AB4EEE7AAF1EE10FA58
:101D300017D4BDEC068B08BDF5EEC08AF1EE10FAA3
:101D4000C6D59FED0F7A77EE677A134BC3ED007A15
:101D5000E8E79FED0B7A77EE877A0F4BC3ED007AB9
:101D6000E0E70D4B00221A60E3E700BFAFF300800D
:101D70004AD8124DFB210940140300201003002013
:101D8000000034430080664024030020200300202C
:101D9000180300200000B4431C03002000000000D2
:101DA000D0B52DED028B044630EEC08A324B83ED68
:101DB000008A324BD3ED007A77EE887AC3ED007A51
:101DC00018EE100AFEF7A0FB06460F4626A3D3E93D
:101DD0000023FEF763FE38B925A3D3E9002330467C
:101DE0003946FEF779FE10B1244B00221A60234BCE
:101DF000D3ED007A9FED227AF4EEC77AF1EE10FA75
:101E000024D583ED007A1F4BD3ED007A78EE677A04
:101E10001D4AC2ED007A94ED000A28EE000A94ED06
:101E2000017A164AD2ED006A27EE267A30EE070ACA
:101E300094ED027A67EE877A30EE270A134A82ED34
:101E4000000A83ED008ABDEC028BD0BD9FED107AB5
:101E5000F4EEC77AF1EE10FAD5DD084B83ED007A87
:101E6000D1E700BFAFF300809A9999999999E93F1A
:101E70009A9999999999E9BF2C0400202804002087
:101E8000004003C624040020200400201C0400207D
:101E90000040034670B588B001210220FFF780FBA7
:101EA00001210420FFF760FB384C002302224FF48D
:101EB0007071204601F0CEFD032206212046FFF777
:101EC000D4FB032207212046FFF7CFFB0322082182
:101ED0002046FFF7CAFB032209212046FFF7C5FB76
:101EE00042F2CF0306930126ADF814600025ADF849
:101EF0001C50ADF81650A4F5823405A92046FFF712
:101F000025FC6023ADF80030ADF80260ADF8045058
:101F10000295ADF80C50ADF80E50ADF81050ADF87C
:101F2000125069462046FFF76BFC69462046FFF7D2
:101F3000A5FC69462046FFF7EDFC69462046FFF701
:101F400033FD08212046FFF76DFD08212046FFF7ED
:101F500070FD08212046FFF775FD08212046FFF798
:101F600078FD31462046FFF72FFC094807F0DEFCDC
:101F700031462046FFF776FD31462046FFF732FC1A
:101F8000044807F0D3FC08B070BD00BF0008024051
:101F9000D0BF0008FCBF000804285AD8DFE800F0D2
:101FA000471403362500012906D02A4B0022C3F826
:101FB0008822C3F88C227047264B0022C3F888225F
:101FC0000122C3F88C227047012906D0214B002240
:101FD000C3F88022C3F8842270471E4B0122C3F845
:101FE00080220022C3F884227047012906D0194BB1
:101FF0000022C3F89022C3F894227047154B0022A8
:10200000C3F890220122C3F894227047012906D018
:10201000104B0022C3F89822C3F89C2270470D4B46
:102020000022C3F898220122C3F89C227047094B72
:102030000022C3F88022C3F88422C3F88822C3F8A0
:102040008C22C3F89022C3F89422C3F89822C3F8D4
:102050009C2270470080424208B52DED028BB0EE05
:10206000408AF0EE608A00283ED0B5EEC00AF1EE5C
:1020700010FA1BDD01210420FFF78EFF0021032051
:10208000FFF78AFF01210220FFF786FF00210120D0
:10209000FFF782FFBCEEC88A324B83ED108AFCEE5C
:1020A000E88AC3ED0E8ABDEC028B08BD0021042036
:1020B000FFF772FF01210320FFF76EFF00210220CE
:1020C000FFF76AFF01210846FFF766FFB1EE488A75
:1020D000BCEEC88A234B83ED0F8AF1EE688AFCEED2
:1020E000E88AC3ED0D8ADEE7B5EEC00AF1EE10FA1C
:1020F00019DD00210420FFF74FFF01210320FFF726
:102100004BFF01210220FFF747FF00210120FFF7CD
:1021100043FFBCEEC88A134B83ED0F8AFCEEE88ABE
:10212000C3ED0E8ABFE701210420FFF735FF002130
:102130000320FFF731FF00210220FFF72DFF0121CF
:102140000846FFF729FFB1EE488ABCEEC88A054B66
:1021500083ED108AF1EE688AFCEEE88AC3ED0D8A01
:10216000A1E700BF0004014021EE007AF7EE007AFB
:1021700077EEC17A0C4AD2ED006A67EEA66A37EEB6
:10218000267A0A4880ED007A21EE201A084B93ED5A
:10219000007A67EE877A31EE271A80ED011A82ED18
:1021A000000AC3ED000A7047180400200C04002048
:1021B000080400200000000010B52DED048B04463B
:1021C000F0EE408AB0EE609AB5EEC00AF1EE10FA79
:1021D0004FD4B5EEC09AF1EE10FA4DD46E4B93ED9C
:1021E000007ADFED6E7AC7EE277A17EE900AFEF7D7
:1021F0008BF963A3D3E90023FEF7DEF9FEF7D4FCE5
:1022000000EE100A05F06AF8F6EE0C7A60EE277A16
:10221000634B93ED007A77EE677A87EE878AF7EE65
:10222000007A37EEC88AB4EEE78AF1EE10FA26DDBE
:10223000B7EE008A18EE100AFEF766F952A3D3E94A
:102240000023FEF749FC08B1B7EE008A9FED551A4E
:1022500068EE090A28EE280AFFF786FF90ED008A4B
:10226000D0ED018A601E032837D8DFE800F01D3961
:10227000536DF1EE408AACE7B1EE499AAEE7F6EE67
:10228000007AB4EEE78AF1EE10FAD3D518EE100A10
:10229000FEF73AF93EA3D3E90023FDF7D7FFFEF797
:1022A00083FC08EE100AC5E701210220FFF774FE47
:1022B00000210120FFF770FEFCEEE88A3A4CC4EDE5
:1022C0000E8A01210320FFF767FE00210420FFF79B
:1022D00063FEBCEEC88A84ED0F8ABDEC048B10BD92
:1022E00000210220FFF758FE01210846FFF754FEA7
:1022F000FCEEE88A2C4CC4ED0D8A01210320FFF787
:102300004BFE00210420FFF747FEBCEEC88A84ED97
:102310000F8AE2E700210220FFF73EFE0121084676
:10232000FFF73AFEFCEEE88A1F4CC4ED0D8A01214E
:102330000420FFF731FE00210320FFF72DFEBCEE45
:10234000C88A84ED108AC8E701210220FFF724FE25
:1023500000210120FFF720FEFCEEE88A124CC4EDBC
:102360000E8A01210420FFF717FE00210320FFF74A
:1023700013FEBCEEC88A84ED108AAEE7AFF300808E
:102380004AD8124DFB2109409A9999999999E93FA8
:10239000333333333333E33F24030020000034432B
:1023A000D40000203333333F0004014008B5064B0E
:1023B0001B7823B100210846FFF7EEFDFEE701215F
:1023C0000020FFF7E9FD08BD0404002008B5F5EE84
:1023D000C00AF1EE10FA09DDB5EEC00AF1EE10FA0E
:1023E0001BDCB5EEC00AF1EE10FA2AD4F5EEC00AF5
:1023F000F1EE10FA09D5B5EEC00AF1EE10FA34DCB0
:10240000B5EEC00AF1EE10FA43D400210846FFF7FA
:10241000C3FD2A4B00221A7008BD00210220FFF7DD
:10242000BBFD01210846FFF7B7FD01210420FFF79E
:10243000B3FD00210320FFF7AFFD204B04221A70EB
:10244000EAE701210220FFF7A7FD00210120FFF7A5
:10245000A3FD01210420FFF79FFD00210320FFF7CA
:102460009BFD164B01221A70D6E700210220FFF7D0
:1024700093FD01210846FFF78FFD00210420FFF79F
:102480008BFD01210320FFF787FD0C4B03221A70FF
:10249000C2E701210220FFF77FFD00210120FFF7A5
:1024A0007BFD00210420FFF777FD01210320FFF7CA
:1024B00073FD024B02221A70AEE700BF44040020F5
:1024C00010B52DED028BDFED667AB4EEE70AF1EE82
:1024D00010FA09DCB0EE408AB5EEC00AF1EE10FA4F
:1024E00004D5B1EE408A01E09FED5D8A5D4B1B781B
:1024F000013B032B2CD8DFE803F0022E58825A4B05
:1025000093ED007ADFED597AC7EE277A17EE900A3D
:10251000FDF7FAFF50A3D3E90023FEF74DF8FEF7CD
:1025200043FB08EE900AB0EE680A04F05DFE20EE70
:10253000080ABCEEC00A4E4C84ED100AB0EE680AE0
:1025400004F092FE20EE080ABCEEC00A84ED0E0AEA
:10255000BDEC028B10BD444B93ED007ADFED437A66
:10256000C7EE277A17EE900AFDF7CEFF3AA3D3E91C
:102570000023FEF721F8FEF717FB08EE900AB0EEF5
:10258000680A04F031FE20EE080ABCEEC00A384C9E
:1025900084ED0F0AB0EE680A04F066FE20EE080A29
:1025A000BCEEC00A84ED0E0AD2E72F4B93ED007A01
:1025B000DFED2E7AC7EE277A17EE900AFDF7A4FF1B
:1025C00025A3D3E90023FDF7F7FFFEF7EDFA08EEA8
:1025D000900AB0EE680A04F007FE20EE080ABCEE8E
:1025E000C00A234C84ED0F0AB0EE680A04F03CFEEA
:1025F00020EE080ABCEEC00A84ED0D0AA8E71A4BCB
:1026000093ED007ADFED197AC7EE277A17EE900A7C
:10261000FDF77AFF10A3D3E90023FDF7CDFFFEF706
:10262000C3FA08EE900AB0EE680A04F0DDFD20EE71
:10263000080ABCEEC00A0E4C84ED100AB0EE680A1F
:1026400004F012FE20EE080ABCEEC00A84ED0D0A6A
:102650007EE700BFAFF300804AD8124DFB2109404E
:1026600000400346440400201803002000003443C7
:102670000004014008B5024640210248FEF7F0FF81
:1026800008BD00BF0004024008B502468021024890
:10269000FEF7E6FF08BD00BF0004024008B5024691
:1026A00010210248FEF7DCFF08BD00BF0004024015
:1026B00008B5024620210248FEF7D2FF08BD00BF40
:1026C0000004024008B5024608210248FEF7C8FF90
:1026D00008BD00BF0004024070B582B0002204E0D3
:1026E0000133B3F57A7FFBD30132B2F57A7F01D2A1
:1026F0000023F6E701210220FEF736FF01248DF8C2
:10270000044000268DF806608DF8074002238DF8FE
:10271000053010230093174D69462846FEF74EFFFB
:102720002023009369462846FEF748FF4023009384
:1027300069462846FEF742FF8023009369462846F3
:10274000FEF73CFF0823009369462846FEF736FF54
:102750003046FFF78FFF2046FFF796FF2046FFF732
:102760009DFF2046FFF7A4FF2046FFF7ABFF02B016
:1027700070BD00BF0004024038B5054600240FE0DC
:10278000802323411D4214BF01200020FFF77CFF5E
:102790000120FFF76FFF0020FFF76CFF0134E4B268
:1027A000072CEDD938BD10B504460020FFF78AFF8D
:1027B0000020FFF77DFF2046FFF7DEFF0120FFF737
:1027C00081FF10BD70B506460D460020FFF77AFF69
:1027D0000120FFF76DFF002404E0305DFFF7CCFF20
:1027E0000134E4B2AC42F8D30120FFF76BFF70BDB7
:1027F00010B50C4640F0B000FFF7D5FF200940F0BF
:102800001000FFF7D0FF04F00F00FFF7CCFF10BD62
:1028100010B500240BE000212046FFF7E9FF8021DE
:10282000044800EBC410FFF7CDFF0134E4B2072CDD
:10283000F1D910BD4804002000200BE0084A02EB4B
:10284000C0120021D1540133DBB213F0800FF5D058
:102850000130C0B2072801D80023F6E7704700BF57
:102860004804002008B5FFF737FFAE20FFF79BFFB5
:10287000D520FFF798FF8020FFF795FFA820FFF7EE
:1028800092FF3F20FFF78FFFD320FFF78CFF002040
:10289000FFF789FF4020FFF786FFA120FFF783FFA6
:1028A000C820FFF780FFDA20FFF77DFF1220FFF737
:1028B0007AFF8120FFF777FFCF20FFF774FFD92041
:1028C000FFF771FFF120FFF76EFFDB20FFF76BFFD3
:1028D0003020FFF768FFA420FFF765FFA620FFF771
:1028E00062FF8D20FFF75FFF1420FFF75CFFAF2032
:1028F000FFF759FFFFF7A0FFFFF78AFF08BD0000B1
:102900002DE9F04114461D460B4634E046F3CF0650
:102910001C4F07EBC61717F80280D3F1000E03F027
:1029200007060EF0070E58BFCEF100064FF0010E5D
:102930000EFA06FE6FEA0E0E4FFA8EFE08EA0E0839
:1029400007F802800CF1010C0FFA8CFC624600EBD8
:10295000040EF4450DDA1FFA8CFCBCF17F0FF1D8A0
:10296000002BEFDB3F2BEDDC1E46002BCEDADE1D0D
:10297000CCE701331BB24A19934201DA8446E5E7FA
:10298000BDE8F081480400202DE9F04F83B00646F1
:102990000C4615469A460C9FFFF7B2FF4FF0000B0E
:1029A0004DE0E21D0DE0013A083116E00133DBB2E3
:1029B000AB423ED29C46F0187F28F7D82246002C26
:1029C000EFDBD210D4F1000E04F007010EF0070E79
:1029D00058BFCEF10001002CE5DB4244072A0FD896
:1029E000DFF87CE00EEBC21E1EF8009008FB05CB62
:1029F00017F80BB00BFA01FB49EA0B090EF800902F
:102A000002F1010EBEF1070FD0D87246DFF850E098
:102A10000EEBC21212F800E008FB05CC17F80CC050
:102A2000C1F108014CFA01F14EEA010E02F800E092
:102A3000BCE7DDF804B00BF1010B5FFA8BFBBAF1D8
:102A4000010307D4D846BBEBE30F05DC0023CDF828
:102A500004B0ADE70733F5E703B0BDE8F08F00BF82
:102A60004804002000B583B0082B04D0062B0CD0FE
:102A700003B05DF804FB203A0A4B03EB021300930A
:102A800010230822FFF780FFF2E7203A02EB420210
:102A9000054B03EB4203009308230622FFF774FF64
:102AA000E6E700BF48C500080CC300082DE9F04167
:102AB00080460F4616461D46002408E004FB0580AC
:102AC0002B46394600B2FFF7CDFF0134E4B2325D48
:102AD000002AF3D1BDE8F08108B470B5C3B0044654
:102AE0000D46164647AA52F8041B019202A806F0AA
:102AF000A1FF334602AA29462046FFF7D7FF43B07D
:102B0000BDE8704001B0704770B582B04FF44070BE
:102B1000FEF794FB28238DF8043002268DF805601B
:102B200000258DF8065001248DF8074001A8FEF716
:102B30008FFB1C238DF804308DF805408DF806506E
:102B40008DF8074001A8FEF783FB25238DF804309C
:102B50008DF805608DF806508DF8074001A8FEF746
:102B600077FB26238DF804308DF805508DF806503C
:102B70008DF8074001A8FEF76BFB27238DF8043082
:102B800003238DF805308DF806508DF8074001A815
:102B9000FEF75EFB02B070BD08B50B4BD3ED000A2B
:102BA0000A4B93ED000AFEF7F7FF0948C368094A8C
:102BB000D2ED000A9FED080A9847084B83ED000A02
:102BC000FFF77EFC08BD00BF300300202C0300206F
:102BD000C000002020030020000000008C0800201E
:102BE000D0B52DED028B044610EE100AFDF78CFCDB
:102BF00006460F4678A3D3E90023FDF707FEFDF74D
:102C0000D3FF00EE100A04F019FADFED677A60EEE8
:102C1000277A17EE900AFDF777FC57A3D3E9002334
:102C2000FDF7F4FDFDF7C0FF08EE100A5F4B1860DA
:102C30005F4B1868FDF768FC51A3D3E90023FDF74B
:102C4000BBFC51A3D3E90023FDF7E0FDFDF7ACFF8A
:102C500000EE100A04F008FB28EE008A554B83EDC5
:102C6000008AFCB94AA3D3E9002330463946FDF770
:102C70001FFF002846D0504EF36830464F4AD2ED31
:102C8000000AB0EE480A98474D4B83ED000AF368FE
:102C900030464C4AD2ED000A9FED4B0A98474B4B09
:102CA00083ED000A424E3068FDF72EFC3AA3D3E9CB
:102CB0000023FDF7CBFAFDF777FF3060FDF724FC2A
:102CC00031A3D3E90023FDF7E9FE00284ED0002C04
:102CD0004FD13B4BD3ED007AF5EEC07AF1EE10FA0E
:102CE00031DD01210420FFF757F900210320FFF710
:102CF00053F9334BD3ED007AFCEEE77A344BC3ED56
:102D0000107A36E026A3D3E9002330463946FDF792
:102D1000D9FE0028C6D02F4EF3683046274AD2EDA0
:102D2000000AB0EE480A9847254B83ED000AF36885
:102D30003046244AD2ED000A9FED230A9847234BE0
:102D400083ED000AAEE700210420FFF725F90121F9
:102D50000320FFF721F91A4BD3ED007AF1EE677AE1
:102D6000FCEEE77A1A4BC3ED0F7A02E0104B00221B
:102D70001A60BDEC028BD0BD4AD8124DFB21094030
:102D80004AD8124DFB2119400C022B8716D9FA3F65
:102D90007B14AE47E17AC43FA87345292158853F8B
:102DA000C3F5285C8FC2C53F00003443880800206B
:102DB0008408002090080020B00000202C03002090
:102DC0008008002030030020000000007C08002064
:102DD00000040140A000002085EB51B81E85EB3FA8
:102DE00010B52DED048BB0EE608ADFEDCD7AB4EE38
:102DF000E70AF1EE10FA40F3DB80DFEDCA7A37EE36
:102E0000C00AF3EE0F7AB4EEE70AF1EE10FA00F220
:102E1000A180C54BD3ED037AF8EEE77A30EE270AAE
:102E2000022410EE100AFDF76FFBB3A3D3E90023D1
:102E3000FDF7C2FB0022BD4BFDF7E8FCFDF7B4FE39
:102E400008EE900AB0EE680A04F0CEF960EE087A57
:102E500017EE900AFDF758FBA9A3D3E90023FDF76D
:102E6000D5FCFDF7A1FE00EE100A04F0E7F810EE25
:102E7000100AFDF749FBA0A3D3E90023FDF7C6FC28
:102E80000022AA4BFDF798FBFDF78EFE09EE100A13
:102E9000A74B1860B0EE680A04F0E6F960EE087A15
:102EA00017EE900AFDF730FB95A3D3E90023FDF759
:102EB000ADFCFDF779FE00EE100A04F0BFF810EE4D
:102EC000100AFDF721FB8CA3D3E90023FDF79EFC3C
:102ED0000022964BFDF770FBFDF766FE08EE100A28
:102EE000944B1860944B1868FDF70EFB86A3D3E94A
:102EF0000023FDF78BFC86A3D3E90023FDF75CFBE1
:102F0000FDF752FE00EE100A04F0AEF929EE009A29
:102F10008A4B83ED009A28EE008A894B83ED008A64
:102F2000DFED807A68EEA77A17EE900AFDF7ECFAEB
:102F300071A3D3E90023FDF769FCFDF735FE07EE29
:102F4000900A012C00F09680022C00F00682BDEC65
:102F5000048B10BDF3EE0F7AB4EEE70AF1EE10FA2F
:102F60007CDDDFED787AB4EEE70AF1EE10FA08D8EE
:102F70006D4BD3ED047AF8EEE77A30EE270A02249F
:102F80004FE7DFED707AB4EEE70AF1EE10FA67DD95
:102F9000DFED6D7AB4EEE70AF1EE10FA62D8624B1B
:102FA000D3ED057AF8EEE77A30EE270A022438E707
:102FB000DFED5B7AB4EEE70AF1EE10FA3DD5F3EE01
:102FC0000F7AB4EEE70AF1EE10FA08D8564BD3EDBB
:102FD000007AF8EEE77A30EE270A012421E7F3EED3
:102FE0000F7AB4EEE70AF1EE10FA3DDDDFED557A27
:102FF000B4EEE70AF1EE10FA08D84B4BD3ED017AA4
:10300000F8EEE77A30EE270A01240AE7DFED4D7A81
:10301000B4EEE70AF1EE10FA28DDDFED4B7AB4EEFC
:10302000E70AF1EE10FA23D83F4BD3ED027AF8EE1F
:10303000E77A30EE270A0124F3E6DFED397AB4EEC1
:10304000670AF1EE10FA7FF4ECAE374BD3ED067A57
:10305000F8EEE77A30EE270A0124E2E60224E0E601
:103060000224DEE60224DCE60124DAE60124D8E6C6
:103070000124D6E62C4B1B681E3307EE103AB8EE3F
:10308000C77AB4EEE77AF1EE10FA74DB2F48C36822
:103090002F4AD2ED000AB0EE490A98472D4B83ED36
:1030A000000A2D48C3682D4AD2ED000AF1EE600AED
:1030B000234A92ED000A9847B0EE408A284B83EDF0
:1030C000000A1D4C2068FDF71FFA13A3D3E9002363
:1030D000FDF7BCF8FDF768FD2060FDF715FA0AA3BF
:1030E000D3E90023FDF7DAFCE0BB134B00221A60A2
:1030F0002DE700BFAFF300804AD8124DFB210940F5
:1031000085EB51B81E85EB3F0C022B8716D9FA3F91
:103110004AD8124DFB211940C35B316D4958853F98
:103120000000B44200003443D80000200080664014
:103130007808002074080020700800206C08002027
:10314000680800200000384200007442900000200F
:103150002C030020640800208000002030030020A1
:10316000600800200120F0EE480AAB4B93ED000A06
:10317000FEF772FFEBE6B4EEE77AF1EE10FA47D510
:10318000A64B5B682D3307EE103AB8EEC77AB4EE63
:10319000E77AF1EE10FA3BDBA148C368A14AD2ED11
:1031A000000AB0EE490A98479B4B83ED000A9E48FF
:1031B000C3689E4AD2ED000AF1EE600A9C4A92ED85
:1031C000000A9847B0EE408A9A4B83ED000A9A4C69
:1031D0002068FDF799F986A3D3E90023FDF736F8B7
:1031E000FDF7E2FC2060FDF78FF983A3D3E900230C
:1031F000FDF754FC18B9904B00221A60A7E6012095
:10320000F0EE480A844B93ED000AFEF725FF9EE698
:10321000824B5B682D3307EE103AB8EEC77AB4EEF6
:10322000E77AF1EE10FA47D57C4B9B683C3307EE0A
:10323000103AB8EEC77AB4EEE77AF1EE10FA3BDB5B
:103240007E48C368774AD2ED000AB0EE490A984733
:10325000714B83ED000A7A48C368744AD2ED000AC4
:10326000F1EE600A724A92ED000A9847B0EE408A89
:10327000704B83ED000A704C2068FDF745F960A3A0
:10328000D3E90023FCF7E2FFFDF78EFC2060FDF799
:103290003BF959A3D3E90023FDF700FC18B9664BAD
:1032A00000221A6053E60120F0EE480A5A4B93EDD3
:1032B000000AFEF7D1FE4AE6584B9B683C3307EE06
:1032C000103AB8EEC77AB4EEE77AF1EE10FA7FF56D
:1032D0003EAE9FED5C7AF4EEC77AF1EE10FA3FF65F
:1032E00036AE5948C3684F4AD2ED000AB0EE490ADB
:1032F0009847494B83ED000A5448C3684B4AD2EDC6
:10330000000AF1EE600A4A4A92ED000A9847B0EED0
:10331000408A484B83ED000A474C2068FDF7F4F8DB
:1033200039A3D3E90023FCF791FFFDF73DFC2060B2
:10333000FDF7EAF830A3D3E90023FDF7AFFB18B996
:103340003D4B00221A6002E60120F0EE480A324BA3
:1033500093ED000AFEF780FEF9E5304BDB681E3383
:1033600007EE103AB8EEC77AB4EEE77AF1EE10FA4B
:1033700072DB3748C3682B4AD2ED000AF1EE600ACF
:10338000B0EE490A9847244B83ED000A3148C368E0
:10339000264AD2ED000AF1EE600A254A92ED000AB3
:1033A0009847B0EE408A234B83ED000A224C2068F8
:1033B000FDF7AAF816A3D3E90023FCF747FFFDF7B2
:1033C000F3FB2060FDF7A0F80BA3D3E90023FDF782
:1033D00065FB18B9184B00221A60B8E50020F0EE22
:1033E000480A0D4B93ED000AFEF736FEAFE500BF2D
:1033F00030B2AE1B00BB843F0C022B8716D9FA3FBC
:103400009023E70EACF4843FF1941F02582E853FC1
:1034100062EAF8799D1E853F64080020D8000020EC
:10342000700000202C0300206000002030030020EA
:10343000680800206008002070080020500000206C
:10344000400000200000A0423000002020000020AA
:103450009000002080000020B4EEE77AF1EE10FA30
:1034600049D5574B1B692D3307EE103AB8EEC77A92
:10347000B4EEE77AF1EE10FA3DDB5248C368524AE7
:10348000D2ED000AF1EE600AB0EE490A98474F4BC0
:1034900083ED000A4E48C3684E4AD2ED000AF1EEB1
:1034A000600A4D4A92ED000A9847B0EE408A4B4BB5
:1034B00083ED000A4A4C2068FDF726F83AA3D3E9C9
:1034C0000023FCF7C3FEFDF76FFB2060FDF71CF83F
:1034D00037A3D3E90023FDF7E1FA18B9404B0022E6
:1034E0001A6034E50020F0EE480A384B93ED000AEC
:1034F000FEF7B2FD2BE5324B1B692D3307EE103A78
:10350000B8EEC77AB4EEE77AF1EE10FA7FF51FADA8
:103510002B4B5B693C3307EE103AB8EEC77AB4EE3A
:10352000E77AF1EE10FAFFF612AD2E48C368264A8C
:10353000D2ED000AF1EE600AB0EE490A9847234B3B
:1035400083ED000A2848C368224AD2ED000AF1EE52
:10355000600A214A92ED000A9847B0EE408A1F4B5C
:1035600083ED000A1E4C2068FCF7CEFF12A3D3E9BE
:103570000023FCF76BFEFDF717FB2060FCF7C4FF90
:103580000BA3D3E90023FDF789FA18B9144B0022E5
:103590001A60DCE40020F0EE480A0C4B93ED000AC0
:1035A000FEF75AFDD3E400BF4595AB6928FF843F81
:1035B0000C022B8716D9FA3F175CBDD41929853F19
:1035C000D8000020700000202C0300206408002098
:1035D0006000002030030020680800206008002000
:1035E00070080020500000204000002000B583B08B
:1035F0004FF40040FEF79AF810B903B05DF804FBF1
:103600004FF40040FEF79CF81A4A1B491B4802F091
:10361000E3FF1B4B1B78013B042B28D801A252F877
:1036200023F000BF393600086F360008573600080F
:1036300069360008FB350008124BD3ED007AFCEE2A
:10364000E77ACDED017A9DF804000F4B93ED000A67
:10365000FFF7C6FAD1E70C4BD3ED000A094B93ED07
:10366000000AFFF7BDFBC8E7FFF796FAC5E7FEF7CC
:103670009DFEC2E7280300202C0300203003002019
:1036800094080020980800209C08002000000000FA
:103690002DE970432DED048B10EE104A2046FCF707
:1036A00033FF80468946C9A3D3E90023FDF70AFA10
:1036B00038B1C8A3D3E9002340464946FDF7F8F9DD
:1036C00018BBC6A3D3E9002340464946FDF7FAF9E3
:1036D00048B1C4A3D3E9002340464946FDF7E8F9C1
:1036E000002840F0AA80C1A3D3E900234046494600
:1036F000FDF7E8F950B1BFA3D3E90023404649469E
:10370000FDF7D6F910B1A04C00E0A04C2046FCF724
:10371000FBFE8FA3D3E90023FCF798FDFDF744FAE5
:1037200008EE100A9A4BD3ED000A9A4B93ED000A6B
:10373000FEF732FAB6EE0C0A88EE000A03F030FC0F
:10374000DFED957A60EE277A17EE900AFCF7DCFE43
:1037500081A3D3E90023FDF759F8FDF725FA08EE18
:10376000100A8E4B18608E4CD4ED008A18EE900A29
:10377000FCF7CAFE7AA3D3E90023FCF71DFFFDF78F
:1037800013FA09EE100AB0EE490A03F06DFD68EE77
:10379000009A844BC3ED009AB0EE490A03F024FD71
:1037A00028EE008A804B83ED008A804BD3ED007AAF
:1037B00078EEA78AC4ED008A18EE900AFCF7A4FE02
:1037C00069A3D3E90023FDF787F9002837D119EE63
:1037D000100AFCF799FE04460D4665A3D3E90023C1
:1037E000FDF75CF970B3B5EEC09AF1EE10FA29DB83
:1037F0006F48C3686F4AD2ED000AB0EE690A984775
:103800006D4B83ED000A6D48C3686D4AD2ED000A26
:10381000654A92ED000A98476A4B83ED000A01263B
:10382000684BD3ED000A644B93ED000A3046FEF777
:10383000C3FCBDEC048BBDE87083634C66E70022DB
:103840002260F6E744A3D3E9002320462946FDF78A
:1038500025F910B346A3D3E9002320462946FDF7F6
:1038600031F9D0B15248C368524AD2ED000AB0EEE5
:10387000690A9847504B83ED000A5048C368504A84
:10388000D2ED000AF1EE600A474A92ED000A98472D
:103890004C4B83ED000A0226C2E737A3D3E900238D
:1038A00020462946FDF7FAF820B32BA3D3E90023DD
:1038B00020462946FDF706F9E0B13D48C3683D4A78
:1038C000D2ED000AF1EE600AB0EE690A98473A4B71
:1038D00083ED000A3948C368394AD2ED000AF1EE97
:1038E000600A314A92ED000A9847364B83ED000A90
:1038F000032695E722A3D3E9002320462946FDF7B6
:10390000CDF800288CD01CA3D3E9002320462946FB
:10391000FDF7D8F8002883D02548C368254AD2EDA2
:10392000000AF1EE600AB0EE690A9847224B83ED77
:10393000000A2248C368224AD2ED000A1A4A92EDD0
:10394000000A98471F4B83ED000A042668E700BF72
:103950009A9999999999A93F4AD8124DFB21094002
:103960007983A29BA1F40D400C022B8716D9FA3F54
:103970004AD8124DFB21F93F3822CE797CD912402A
:103980004AD8124DFB2119400AD7A33E8FC2753E7B
:10399000300300202C030020000034435C0800208A
:1039A000580800205408002050080020D0000020B3
:1039B00010000020140300204C080020000000200C
:1039C0001003002048080020713D8A3EB81E85EB98
:1039D00051B8CE3FA4703D0AD7A3D03F8FC2F5287F
:1039E0005C8FD23FD7A3703D0AD7D33FC3F5285C85
:1039F0008FC2D53F0AD7A3703D0AD73F08B5012132
:103A00004FF08040FEF74CF800B908BD01214FF09F
:103A10008040FEF751F8034B93ED000AFFF738FEA4
:103A2000F3E700BFD4000020084A136B43F02003E3
:103A30001363074B1A6842F480221A60DA68DA606E
:103A40001A8B92B242F400721A8370470038024017
:103A50000014024000B583B000918DF804208DF869
:103A6000073003238DF8053000238DF806306946B2
:103A7000FDF7A4FD03B05DF804FB000070B584B051
:103A800001214020FDF770FD01214FF48040FDF73A
:103A900087FD0F210620FDF7EFFC4FF4004602964C
:103AA00000258DF80C5003238DF80D3001248DF87E
:103AB0000F4002A90748FDF781FD00968DF80450DC
:103AC00008238DF805308DF806406846FDF7E6FDC1
:103AD00004B070BD0018024010B584B00446012146
:103AE0000846FDF74FFD4FF47A7303FB04F4013CE5
:103AF00002945323ADF804300024ADF80C40ADF827
:103B0000064001A94FF08040FDF720FE012211463A
:103B10004FF08040FDF7B8FF21464FF08040FDF7A1
:103B200061FE04B010BD000008B54FF4E130FDF7B0
:103B3000BDFA4FF4E130FDF703FB2E4805F0F6FE29
:103B40005420FDF75FFA2C4805F0F0FE2B4802F0F8
:103B5000F9FF2B4805F0EAFEFEF7D6FF294805F0ED
:103B6000E5FEFFF761FF284805F0E0FEFEF792F959
:103B7000264805F0DBFEFEF775FE254B08220021E6
:103B80000846FEF7A9FFFEF743FE224805F0CEFEE9
:103B900000230122FF212048FFF75CFF1F4805F0AA
:103BA000C5FE1420FDF760FA00F0A0FAA8B91C4881
:103BB00005F0BCFE02F0B8FCB8B91A4805F0B6FE34
:103BC000FFF75CFF184805F0B1FE0320FFF784FF04
:103BD000164805F0ABFE002008BD00F087FA01464C
:103BE000134805F03BFE0120F6E7124805F09EFE63
:103BF0000220F1E71CC0000838C000080044004063
:103C00004CC000085CC0000870C0000884C00008F8
:103C100098C00008ACC0000800140240C0C00008F2
:103C2000F8C0000858C1000874C1000888C1000825
:103C3000D4C0000810C1000808B507EE900AF8EEDD
:103C4000677A17EE900AFCF75FFC08A3D3E900231C
:103C5000FCF7DCFD0022044BFCF7AEFCFCF784FF14
:103C600080B208BDAFF30080008076400000000005
:103C7000004EA84010B540F205210D48FDF71DFB90
:103C800000B910BD0A4C40F205212046FDF727FB84
:103C90002046FDF70FFB074B1880074B4FF461627E
:103CA0005A63FFF7C9FF0146044805F0D7FDE8E76E
:103CB00000200140A0080020000001409CC1000835
:103CC00010B582B001210220FDF74EFC4FF4407385
:103CD000009301248DF804408DF8064003238DF8ED
:103CE00005308DF8074069460448FDF767FC044B32
:103CF000C3F8A042C3F8A44202B010BD00040240C1
:103D00000080404238B50D4B1A6822F440221A60F8
:103D10001A6842F480221A60094C0123C4F8A432C4
:103D2000C4F8A0320420FDF77FF90025C4F8A4529E
:103D30000420FDF779F9C4F8A05238BD0004024010
:103D40000080404210B50D4B1A6822F440221A60E0
:103D50001A6842F480221A60094C0023C4F8A03289
:103D6000C4F8A4320420FDF75FF90123C4F8A0329F
:103D7000C4F8A4320420FDF757F910BD0004024036
:103D80000080404238B5124B1A6822F440221A6073
:103D90001A681A600F4D0124C5F8A4422046FDF7A9
:103DA00043F9C5F8A0422046FDF73EF90023094A31
:103DB000D2F824223AB10133DBB2FA2BF7D9FFF75C
:103DC000C1FF012003E00020024BC3F8A00238BD70
:103DD000000402400080404238B50D4C0025C4F874
:103DE000A0520C4B1A6822F440221A601A6842F45E
:103DF00080221A60C4F8A4520220FDF715F90123AD
:103E0000C4F8A0320220FDF70FF9C4F8A05238BD63
:103E1000008040420004024070B50D4C0025C4F8FB
:103E2000A0520C4B1A6822F440221A601A6842F41D
:103E300080221A600126C4F8A4620220FDF7F4F87B
:103E4000C4F8A0620220FDF7EFF8C4F8A05270BDDC
:103E5000008040420004024070B50546134B1A68CA
:103E600022F440221A601A6842F480221A60002468
:103E70000F4BC3F8A04216E0EB090D4EC6F8A43272
:103E80006D00EDB20220FDF7CFF80123C6F8A03295
:103E90000220FDF7C9F80023C6F8A0320220FDF782
:103EA000C3F80134E4B2072CE6D970BD0004024027
:103EB00000804042F8B50746154B1A6822F44022AC
:103EC0001A601A681A600024254604E00120FDF7F4
:103ED000ABF80135EDB2072D12D80E4E0023C6F80F
:103EE000A0320220FDF7A0F80123C6F8A0329C40C2
:103EF000E4B2D6F82432002BE8D00134E4B2E5E78E
:103F00001FB9FFF789FF2046F8BDFFF765FFFAE705
:103F100000040240008040422DE9F04104460F4673
:103F200015461E46FFF7EEFE600000F0FE00FFF7AC
:103F300093FFFFF727FF88B980463846FFF78CFFCD
:103F4000FFF720FF4446AC4214D2305DFFF784FFF8
:103F5000FFF718FF48B90134E4B2F4E7FFF7F2FEC7
:103F60004FF001084046BDE8F081FFF7EBFE4FF04F
:103F70000108F7E7FFF7E6FEF4E7F8B506460F4657
:103F800014461D46FFF7BEFE700000F0FE00FFF76E
:103F900063FFFFF7F7FE78B93846FFF75DFFFFF7DD
:103FA000F1FEFFF7AFFE700040F00100C0B2FFF776
:103FB00053FFFFF7E7FE0AE0FFF7C4FE012011E020
:103FC0000020FFF777FF2870013CE4B2013534B1DF
:103FD000012CF5D00120FFF76DFF2870F4E7FFF703
:103FE000B1FE2046F8BD38B505460C46FFF78AFEFF
:103FF000D020FFF731FFFFF7C5FE78B92846FFF75D
:104000002BFFFFF7BFFE2046FFF726FFFFF7BAFEA4
:10401000044638B9FFF796FE204638BDFFF792FEFA
:104020000124F9E7FFF78EFE0124F5E708B5C1008A
:1040300001F0F8011B20FFF7D6FF08BD08B5C1004D
:1040400001F0F8011C20FFF7CEFF08BD08B5BB2822
:1040500009D861280CD829280CD813280CD809288D
:104060000CD9052100E001211A20FFF7BCFF08BD93
:104070000221F9E70321F7E70421F5E70621F3E739
:1040800010B5B0F57A7F04D80446032803D8042479
:1040900001E04FF47A744FF47A7191FBF4F1C9B2F4
:1040A0000139C9B21920FFF79EFF6008FFF7CEFF64
:1040B00010BD10B50446FFF725FED020FFF7CCFE5B
:1040C000FFF760FE2046FFF7C7FEFFF75BFEFFF736
:1040D00019FED120FFF7C0FEFFF754FE0020FFF7C6
:1040E000E9FE0446FFF72EFE204610BD08B5FFF797
:1040F000E7FD80216B20FFF776FF6420FCF7B4FF1B
:1041000000216B20FFF76FFF0320FFF78FFF0020D8
:10411000FFF794FF3220FFF7B3FF00213820FFF7AD
:1041200062FF00216A20FFF75EFF00212320FFF7D6
:104130005AFF80213720FFF756FF7520FFF7B9FFA0
:1041400068280CD101216B20FFF74DFF00216C2066
:10415000FFF749FF3220FFF793FF002008BD01461B
:10416000024805F07BFB0120F8E700BFACC1000866
:1041700038B50446C578437813F0010F09D005F02F
:104180003F00C00805F007010131074B1B6803B170
:104190009847637813F0080F04D0034B5B680BB1AA
:1041A000A8099847002038BDA408002008B5C823F6
:1041B0004FF48062024940F6F63002F015F808BD6F
:1041C00038CB000810B586B004464C4B1B68ADF8E0
:1041D0000C301B0C8DF80E30494B1B68ADF80830C5
:1041E0001B0C8DF80A30474B1B68ADF804301B0CD4
:1041F0008DF80630444B1B68ADF800301B0C8DF871
:10420000023000F0030101F118030DEB030111F876
:104210000C3C8DF81430C0F3C10202F118030DEB11
:10422000030212F80C3C8DF81530C0F381131833DB
:104230006B4413F80C0C8DF8160011F8101C8DF857
:10424000101012F8102C8DF8112013F8103C8DF876
:10425000123005AA032140F2264001F051FF002848
:1042600040D104AA032140F22A4001F049FF00286E
:104270003BD1019BADF814301B0C8DF81630009B20
:10428000ADF810301B0C8DF8123014F0040F05D06F
:1042900037238DF8143027238DF8103014F0200FB9
:1042A00005D057238DF8153047238DF8113014F4BD
:1042B000807F05D077238DF8163067238DF8123074
:1042C00005AA03214FF4886001F01AFF80B904AAFF
:1042D000032140F2314001F013FF60B90B4B1C8108
:1042E00006B010BD4FF0FF30FAE74FF0FF30F7E7B0
:1042F0004FF0FF30F4E74FF0FF30F1E7C0C10008A6
:10430000C4C10008C8C10008CCC10008A40800202E
:1043100070B584B0404B1B8903F0030250F8222093
:10432000019213F0040F01D052420192C3F3C10273
:1043300050F82220029213F0200F01D05242029234
:10434000C3F3811250F82220039213F4807F01D02E
:1043500052420392019BD817304AA3FB023102FB61
:1043600000119B0F43EA810301930299CC17A1FB33
:10437000021002FB04008D0F45EA80050295039CA4
:10438000E017A4FB024102FB0012A40F44EA8204DE
:1043900003941A0E8DF80020C3F307428DF8012014
:1043A000C3F307228DF802208DF803306A460421FA
:1043B0004FF4747001F0A4FE40BB2B0E8DF800305A
:1043C000C5F307438DF80130C5F307238DF802309C
:1043D0008DF803506A4604214FF4757001F090FE89
:1043E000B8B9230E8DF80030C4F307438DF80130BF
:1043F000C4F307268DF802608DF803406A46042155
:104400004FF4767001F07CFE04B070BD4FF0FF30C9
:10441000FAE74FF0FF30F7E7A408002009E3CA02EB
:1044200010B588B004460DF1060001F0BDFABDF8E4
:1044300006C04FEACC3C364B1B8903F0030254F80C
:104440002220059213F0040F01D052420592C3F3CB
:10445000C10254F82220069213F0200F01D05242DC
:104460000692C3F3811254F82220079213F4807F3E
:1044700001D0524207920599CA17A1FB0C130CFBFD
:104480000233890F41EA83010591069AD017A2FBF6
:104490000C230CFB0033920F42EA83020692079B27
:1044A000DC17A3FB0C300CFB04009B0F43EA8003DA
:1044B0000793080E8DF80800C1F307408DF8090036
:1044C000C1F307208DF80A008DF80B10110E8DF83E
:1044D0000C10C2F307418DF80D10C2F307218DF8BF
:1044E0000E108DF80F201A0E8DF81020C3F307421E
:1044F0008DF81120C3F307228DF812208DF81330A8
:1045000002AA0C214FF4257001F0FAFD08B010BD8D
:10451000A408002010B586B00446164B93E80700A7
:1045200006AB03E90700C82C1AD8C82393FBF4F3A1
:10453000013B1A0E8DF804208DF8053001AA0221E6
:1045400040F2162001F0DCFD68B903AA0C2140F608
:10455000C12001F0D5FD48B9074B9C8106B010BDC4
:104560004FF0FF30FAE74FF0FF30F7E74FF0FF3042
:10457000F4E700BFD0C10008A408002010F0070F26
:1045800000F0BE8010B52DED028B82B00446B1F56F
:10459000C86F00F2B88007EE901AF8EE677A9FEDC8
:1045A000637A87EE878A0DF1030001F0F1F89DF838
:1045B0000330023B0E2B00F2A980DFE803F008A7CE
:1045C0002FA7A7A742A7A7A7A7A7A7A75500DFEDD3
:1045D000587A68EE277AFCEEE77A17EE903A9BB2AB
:1045E000DFED547A68EE277AFCEEE77A17EE902A30
:1045F00092B2190A8DF804108DF80530130A8DF85F
:1046000006308DF8072014F0010F40D114F0020F8E
:1046100051D114F0040F61D1002079E0DFED467A2A
:1046200068EE277AFCEEE77A17EE903A9BB2DFED60
:10463000437A68EE277AFCEEE77A17EE902A92B278
:10464000D7E7DFED3F7A68EE277AFCEEE77A17EEE0
:10465000903A9BB2DFED3B7A68EE277AFCEEE77A80
:1046600017EE902A92B2C4E7DFED377A68EE277A28
:10467000FCEEE77A17EE903A9BB2DFED347A28EE43
:10468000278ABCEEC88A18EE102A92B2B1E701AAB6
:1046900002214FF4EA7001F033FD00283CD10DF106
:1046A000060202214FF4927001F02AFD0028ADD0DD
:1046B0004FF0FF302CE001AA02214FF4EC7001F022
:1046C0001FFD60BB0DF1060202214FF4947001F052
:1046D00017FD00289DD04FF0FF3019E001AA0221FC
:1046E0004FF4EE7001F00CFDE0B90DF1060202216D
:1046F0004FF4967001F004FD50B14FF0FF3007E029
:104700004FF0FF3070474FF0FF3001E04FF0FF30C7
:1047100002B0BDEC028B10BD4FF0FF30F8E74FF058
:10472000FF30F5E74FF0FF30F2E700BF00004843ED
:104730000000804600004046000000460000C045E2
:104740000000804500004045000000450000C044D6
:1047500000B583B000238DF8073010F0010F02D0B0
:1047600030238DF8073010F0020F05D09DF8073088
:1047700043F00C038DF8073010F0040F05D09DF8BE
:10478000073043F003038DF807300DF107020121D4
:104790004FF4A47001F0B4FC03B05DF804FB00B565
:1047A00083B020B10346042802D9042300E001238A
:1047B000013B8DF807300DF10702012140F24F1047
:1047C00001F09EFC03B05DF804FB000000B583B06F
:1047D000094BA3FB0030830A8DF80430C0F3870037
:1047E0008DF8050001AA02214FF4EF7001F088FC5A
:1047F00003B05DF804FB00BFCDCCCCCC00B583B0DA
:10480000094BA3FB0030830A8DF80430C0F3870006
:104810008DF8050001AA02214FF4ED7001F070FC43
:1048200003B05DF804FB00BFCDCCCCCC00B583B0A9
:104830000E4B83FB0023C017C0EBA31000FB01F15C
:104840000B0E8DF80430C1F307438DF80530C1F32A
:1048500007238DF806308DF8071001AA04214FF4C4
:10486000AE7001F04DFC03B05DF804FBD34D621057
:1048700000B583B0084BA3FB00308308800A8DF895
:1048800004008DF8053001AA02214FF4AD7001F04B
:1048900037FC03B05DF804FBCDCCCCCC00B583B0C5
:1048A000084BA3FB00308308800A8DF804008DF8C4
:1048B000053001AA02214FF4AC7001F021FC03B0D5
:1048C0005DF804FBCDCCCCCC00B585B068B10D4A09
:1048D00001AB07CA03C31A7001AA09214FF49760FC
:1048E00001F00EFC05B05DF804FB074A01AB07CAF6
:1048F00003C31A7001AA09214FF4976001F000FC6C
:10490000F0E700BFE0C10008ECC1000800B583B0CB
:10491000B0B1C0238DF80430C2238DF80530C42314
:104920008DF80630C6238DF8073001AA042140F621
:10493000982001F0E5FB00F0C5FD03B05DF804FB35
:104940004FF08B330193F0E700B583B0B0B1202373
:104950008DF8043028238DF8053030238DF806308B
:1049600038238DF8073001AA042140F69E2001F07B
:10497000C7FB00F0A7FD03B05DF804FB4FF0A333C5
:104980000193F0E72DE9F04184B0044602238DF84D
:104990000430CA238DF80530E3238DF8063009234F
:1049A0008DF8073001AA0421682001F0A9FBA32398
:1049B0008DF8043014F0400800F0B080C0238DF86A
:1049C0000530C8238DF80630C2238DF8073014F463
:1049D000C07500F0AB80C4238DF80830CC238DF86F
:1049E0000930C6238DF80A30A3238DF80B308DF8DB
:1049F0000C308DF80D3001AA0A2140F6A72001F0F5
:104A00007FFB14F0030700F0998020238DF8043019
:104A100001AA012140F6B62001F072FB14F0200F2C
:104A200000F090800120FFF74FFFADB114F4807FBC
:104A300000F08C80B2238DF804308B238DF8053084
:104A4000B6238DF806309B238DF8073001AA042188
:104A500040F6A22001F054FB14F0010F00F0838017
:104A6000F8238DF8043001AA01214FF40B6001F006
:104A700047FBFA210720FFF781FD0720FFF768FEBB
:104A80000120FFF78CFE6420FFF7A0FE4FF4FA70C0
:104A9000FFF7B4FEC8213F48FFF7C8FE2820FFF704
:104AA000E7FE0A20FFF7FAFE14F0020F65D0D923C3
:104AB0008DF8043001AA012140F23D7001F020FB85
:104AC00014F0040F5DD00120FFF720FF14F0100F49
:104AD0005BD00120FFF738FF2F4E44F008037381AD
:104AE00000F0F0FC0023B373B8F1000F01D00622F0
:104AF000B2731DB1284A937B0633937314F0140FDD
:104B000003D0254A937B103393731FB1224A937BC2
:104B100004339373002004B0BDE8F081A3238DF823
:104B200005308DF806308DF8073050E7A3238DF857
:104B300008308DF809308DF80A3055E7D8238DF804
:104B4000043065E70020FFF7BFFE6EE7B0238DF865
:104B5000043080238DF80530B4238DF8063090237F
:104B60008DF8073072E7D8238DF8043001AA0121AF
:104B70004FF40B6001F0C4FA96E7D8238DF80430A7
:104B800098E70020FFF7C2FEA0E70020FFF7DCFE59
:104B9000A2E700BF09E3CA02A40800202DE9F047FC
:104BA0008CB006460F4692469846149D00232B80F3
:104BB000159A04A9734B987B00F056FF002840F02B
:104BC000DE8081466F4B5B8913F0140F65D09DF832
:104BD00010209DF81100000440EA02609DF81220A8
:104BE00040EA02209DF813201043CAF800009DF807
:104BF00014109DF81520120442EA01629DF8161067
:104C000042EA01229DF817100A43CAF804209DF8D1
:104C100018409DF81910090441EA04619DF81A40F2
:104C200041EA04219DF81B402143CAF808109DF871
:104C30001CC09DF81D40240444EA0C649DF81EC06D
:104C400044EA0C249DF81FC044EA0C04CAF80C4046
:104C5000001400904FEA224CCDF804C009140291D0
:104C6000221403920CFB0CFC00FB00C001FB0101B1
:104C700002FB021202F17142B2F1007F06D8B5F9CF
:104C8000002042F480722A80102207E000F01AFC13
:104C900000232B804FF0FF3968E0002213F0400F13
:104CA0002DD002F13001694411F8200C02F13101DC
:104CB000694411F8201C41EA0021398002F13201D7
:104CC000694411F8200C02F13301694411F8201CE9
:104CD00041EA0021798002F13401694411F8200C85
:104CE00002F13501694411F8201C41EA0021B98024
:104CF0000632D2B2B5F9001041F00801298013F450
:104D0000C07F2DD002F13001694411F8200C02F16E
:104D10003101694411F8201C41EA0021318002F17F
:104D20003201694411F8200C02F13301694411F891
:104D3000201C41EA0021718002F13401694411F81C
:104D4000200C02F13501694411F8201C41EA0021D0
:104D5000B1800632D2B2B5F9001041F0700129805D
:104D600013F0030F06D1404601F0DCFB48460CB0BF
:104D7000BDE8F08704AB9818FFF7FAF9F3E74FF0B6
:104D8000FF39F3E7A408002010B582B004462E4B8B
:104D9000586801AB04220D210078FFF7EEF80028D7
:104DA0004FD101469DF80420D21002F01C029DF85C
:104DB0000730C3F3011002438DF800209DF8052051
:104DC000D21002F01C02C3F3810002438DF80120CF
:104DD0009DF80620D21002F01C0203F003031343D7
:104DE0008DF802301BE004EB810C184BCCF800303E
:104DF00007E0DCED007A9FED167A67EE877ACCED5E
:104E0000007A0EF108030DEB030212F8083C013B97
:104E1000DBB202F8083C002BEBD10131C9B2022908
:104E20000CD88E4601F108036B4413F8083C002BA4
:104E3000D9D104EB810300221A60EEE7002002B012
:104E400010BD0720FBE700BF000100207B14AE3E31
:104E50001D5A843F30B585B005460C4601A8FFF7C2
:104E600093FF0020024611E09FED217AF4EEC77A0D
:104E7000F1EE10FA06D49FED1F7AF4EEC77AF1EE48
:104E800010FA02DD0123934018430132022A2CDC80
:104E900055F8223054F822105B1A002BB8BF5B4241
:104EA00007EE903AF8EEE77A9FED137A67EE877A8D
:104EB00004AB03EB820353ED036AF5EE406AF1EEB7
:104EC00010FAD1D087EEA67AF7EE007A77EE677AFD
:104ED000F0EEE77A9FED097AF4EEC77AF1EE10FA78
:104EE000D3DD012393401843CFE705B030BD00BFA9
:104EF0009A99993E3333733F00008037295C0F3E07
:104F000030B583B004460D46394B586801AB0322D7
:104F10000D210078FFF731F8002865D19DF80430A5
:104F200003F01F038DF804309DF8053003F01F03D4
:104F30008DF805309DF8063003F01F038DF806301C
:104F4000024629E0DFED2B6A27EE267A02F10803FC
:104F50000DEB030111F8043C013BDBB201F8043C0A
:104F6000002BEFD1C7EE876AF7EE007A76EEE77A8C
:104F7000F0EEE77A9FED207AF4EEC77AF1EE10FAC0
:104F800009DD01239340184305E0B3EE097ADDE71C
:104F90000123934018430132022A26DC54F82230C0
:104FA00055F822105B1A002BB8BF5B4207EE903A0F
:104FB000F8EEE77A9FED117A67EE877A02F108033F
:104FC0006B4413F8043C002BDFD1B2EE047AF4EE0C
:104FD000C77AF1EE10FADBD49FED097AF4EEC77AC6
:104FE000F1EE10FAD7DDD3E7072003B030BD00BFE4
:104FF0000001002054E3853F295C0F3E000080370C
:105000000000D24200B583B0234B93F82430CBB1DB
:10501000A0B102238DF807301F4B586819680DF1B5
:1050200007030122C97B0078FEF776FF40BB9DF89D
:105030000720194B5A7403B05DF804FB00238DF868
:105040000730E9E7144B9B7AEBB130B1124B5B7C34
:10505000E3B901238DF8073002E000238DF8073013
:105060000D4B586819680DF107030122C97B0078C0
:10507000FEF752FF60B99DF80720074B5A74DAE734
:105080004FF0FF30D7E74FF0FF30D4E70020D2E7F2
:105090004FF0FF30CFE700BF00010020F0B589B02E
:1050A00005460C46164601238DF8143000238DF872
:1050B0001530854B5868196805AB0222897C007849
:1050C000FEF72AFF002840F0CE81C820FBF7CCFF76
:1050D00000238DF814307C4B5868196805AB012209
:1050E000C97B0078FEF718FF002840F0BF81764B9F
:1050F0005868196805AB012249790078FEF70CFF62
:10510000002840F0B681704B5868196805AB012241
:10511000897C0078FEF700FF002840F0AD816A4BE3
:105120005868196805AB0122C97D0078FEF7F4FEC6
:10513000002840F0A481644B5868196805AB01222F
:1051400009790078FEF7E8FE002840F09B810C23E7
:105150008DF814305C4B5868196805AB0122097949
:105160000078FEF7D9FE002840F08F810F20FBF772
:105170007BFF554B9A6A527A8DF81420586819684B
:1051800005AB012289780078FEF7C6FE002840F0C2
:105190007F814D4B9A6A127A8DF8142058681968ED
:1051A00005AB012249780078FEF7B6FE002840F0F2
:1051B0007281002E79D0444B9B6A9B7A63F01F0367
:1051C0008DF81430404B5868196805AB0122897975
:1051D0000078FEF7A1FE002840F06081002E6AD022
:1051E000394B9B6ADB7A63F01F038DF81430364B22
:1051F0005868196805AB0122C9790078FEF78CFE62
:10520000002840F04E81002E59D140238DF81430F3
:105210002D4B5868196805AB012209790078FEF713
:105220007BFE002840F0408178238DF81430264B17
:105230005868196805AB012249790078FEF76CFEC1
:10524000002840F034813220FBF70EFF00238DF858
:1052500014301D4B5868196805AB01224979007854
:10526000FEF75AFE002840F02581174B5868196850
:1052700005AB0222897A0078FEF77FFE06460028F9
:1052800040F01B819DF814309DF8157047EA032704
:105290000E4BA3FB0737C7F3C7070023AB606B6058
:1052A0002B60A360636023605CE0074B9B6A9B7A82
:1052B0008DF8143086E718238DF8143097E7C8204E
:1052C000FBF7D2FEA1E700BF00010020ABAAAAAA0B
:1052D0009DF814309DF8151041EA032109B2ADF88C
:1052E00004109DF816309DF8172042EA032212B2EE
:1052F000ADF806209DF818009DF8193043EA002308
:105300001BB2ADF808302068084420606168114481
:105310006160A2681A44A2609DF81A309DF81B10C3
:1053200041EA032109B2ADF80C109DF81C309DF83C
:105330001D2042EA032212B2ADF80E209DF81E0095
:105340009DF81F3043EA00231BB2ADF810302868E7
:1053500008442860696811446960AA681A44AA6010
:105360000136F6B2BE420ED2554B5868196805ABED
:105370000C22C97A0078FEF700FE0028A8D04FF072
:10538000FF3009B0F0BD2968832200230804091406
:10539000FBF75AFC00263A463346FBF755FC2860DB
:1053A00069688322002308040914FBF74DFC3A4680
:1053B0003346FBF749FC6860A96883220023080490
:1053C0000914FBF741FC3A463346FBF73DFCA86065
:1053D0002068031400041946B3422DDBC00A3A4684
:1053E000334640EA4150C912FBF72EFC206060684A
:1053F000031400041946002B24DBC00A3A46334646
:1054000040EA4150C912FBF71FFC6060A06803141A
:1054100000041946002B1BDBC00A3A46334640EA1B
:105420004150C912FBF710FCA060002816DDA0F562
:105430008030A0600020A4E740F2FF72801843F1A2
:105440000001CBE740F2FF72801843F10001D4E77E
:1054500040F2FF72801843F10001DDE700F5803073
:10546000A06000208DE74FF0FF308AE74FF0FF305B
:1054700087E74FF0FF3084E74FF0FF3081E74FF0D0
:10548000FF307EE74FF0FF307BE74FF0FF3078E7EB
:105490004FF0FF3075E74FF0FF3072E74FF0FF300D
:1054A0006FE74FF0FF306CE74FF0FF3069E74FF0E8
:1054B000FF3066E74FF0FF3063E74FF0FF3060E703
:1054C000000100207C4B9B7A002B00F0D48000B5BB
:1054D00083B000238DF80730774B586819680DF1B9
:1054E00007030122C97B0078FEF716FD002840F073
:1054F000C580714B586819680DF10703012249797D
:105500000078FEF709FD002840F0BB806A4B586820
:1055100019680DF10703012209790078FEF7FCFCF8
:10552000002840F0B180644B93F82430002B52D017
:105530000C238DF80730604B586819680DF107038C
:10554000012209790078FEF7E7FC002840F09F80EF
:105550003220FBF789FDC0238DF80730564B9B7A2C
:1055600013F0010F02D0E0238DF80730524B58683A
:1055700019680DF10703012209790078FEF7CCFCC8
:10558000002840F087804C4B5B7C03B302238DF8EE
:105590000730494B586819680DF107030122C97B90
:1055A0000078FEF7B9FC002877D100238DF807308A
:1055B000414B586819680DF10703012249790078B9
:1055C000FEF7AAFC00286BD103B05DF804FB0023B2
:1055D0008DF80730DDE704238DF80730364B586827
:1055E00019680DF10703012209790078FEF794FC90
:1055F000002858D1304B9B7C23B92F4B9B7A13F05A
:10560000010F30D140238DF807302B4B58681968B3
:105610000DF10703012209790078FEF77DFC0028CF
:1056200044D13220FBF720FD234B5B7CFBB10123EF
:105630008DF80730204B586819680DF107030122D7
:10564000C97B0078FEF768FC98BB1B4B586853F881
:10565000101B012249790078FEF75EFC0028B3D0C8
:105660004FF0FF30B0E760238DF80730CDE700231F
:105670008DF80730DEE74FF0FF3070474FF0FF3016
:10568000A2E74FF0FF309FE74FF0FF309CE74FF06D
:10569000FF3099E74FF0FF3096E74FF0FF3093E788
:1056A0004FF0FF3090E74FF0FF308DE74FF0FF30C5
:1056B0008AE74FF0FF3087E7000100200D4B1B7A8F
:1056C000032B13D8DFE803F002060A0EFA23038047
:1056D000002070474FF4FA730380F9E74FF47A73B0
:1056E0000380F5E74FF4FA630380F1E700230380BA
:1056F000EEE700BF00010020244B9B7A002B3CD03A
:1057000000B583B0B0F57A7F33D00BD8FA2813D028
:10571000B0F5FA7F03D108238DF807300FE04FF082
:10572000FF3023E0B0F5FA6F03D118238DF807306E
:1057300005E04FF0FF3019E000238DF80730134BE0
:105740001B7A9DF80720B3EBD20F19D00F4B586886
:1057500019680DF10703012289790078FEF7DCFB57
:1057600080B99DF80730DB08084A137203B05DF872
:1057700004FB10238DF80730E1E74FF0FF3070474E
:105780000020F3E74FF0FF30F0E700BF00010020FA
:105790000F4B5B7A032B16D8DFE803F0020C0F12D5
:1057A000022303700A4BDB7C83B103785B00037038
:1057B0000020704704230370F4E708230370F1E727
:1057C00010230370EEE74FF0FF3070470020704762
:1057D00000010020234B9B7A002B35D000B583B00D
:1057E00002380E2833D8DFE800F008322332323294
:1057F00027323232323232322B0000238DF807301A
:10580000184B5B7A9DF80720B3EBD20F24D0154BD1
:10581000586819680DF107030122C9790078FEF76D
:105820007BFBD8B99DF80730DB080E4A537210E0B5
:1058300008238DF80730E3E710238DF80730DFE702
:1058400018238DF80730DBE74FF0FF3070474FF03B
:10585000FF3003B05DF804FB0020FAE74FF0FF30A3
:10586000F7E700BF000100200F4BDB7A013B052B5F
:1058700017D8DFE803F003070A0D1013BC230380D9
:105880000020704762230380FAE72A230380F7E7AA
:1058900014230380F4E70A230380F1E70523038040
:1058A000EEE700230380EBE700010020234B9B7A07
:1058B000002B3AD000B583B0BB281AD901238DF84C
:1058C00007301E4BDA7A9DF807309A4230D01B4BD6
:1058D000586819680DF10703012289780078FEF7EE
:1058E0001BFB38BB9DF80720144BDA7203B05DF840
:1058F00004FB612803D902238DF80730E1E729284A
:1059000003D903238DF80730DBE7132803D90423D9
:105910008DF80730D5E7092803D905238DF807301E
:10592000CFE706238DF80730CBE74FF0FF30704705
:105930000020DBE74FF0FF30D8E700BF0001002078
:10594000054B93F8243023B9034BDB8903800020F7
:1059500070474FF0FF307047000100200D4B1B7A5D
:10596000032B13D8DFE803F002060A0E0A4B03608C
:1059700000207047094B036000207047084B03600C
:1059800000207047074B0360002070474FF0FF3046
:10599000704700BF00010020000003430000834265
:1059A0003333034233338341114B5B7A032B1AD8D1
:1059B000DFE803F0020D11154FF4804303800C4B18
:1059C000DB7C9BB103885B0803800020704741F6B5
:1059D0009C730380F3E74FF480530380EFE74FF4A9
:1059E00000630380EBE74FF0FF3070470020704703
:1059F00000010020024B1B7C03700020704700BF99
:105A00000001002070B5174B93F824302BBB00F039
:105A1000FE04144B9B7A13B3124A167C2340137472
:105A2000A3420BD04FF0FF3514B90E4B1B7D3BB199
:105A30000120FFF7E7FA3CB9284670BD0025F3E7DF
:105A40000020FFF7DFFAF6E7FFF73CFD0028F3D070
:105A5000044B1E744FF0FF35EEE70025ECE74FF0E6
:105A6000FF35E9E7000100202E4B93F82430002B8E
:105A700049D0F0B583B005460F461646294B9B7AB0
:105A8000002B43D0274B5868196801AB0222897A52
:105A90000078FEF772FA00283BD19DF804309DF89B
:105AA000054044EA0324AC4223D31E4B5868438884
:105AB000B4EB530F0DD91B4B196801AB0122497C84
:105AC0000078FEF75AFA38BB9DF8043013F0100F37
:105AD00014D1144B586819683B46EAB2C97A007869
